{"contracts/DexPoolFactory.sol":{"DexPoolFactory":{"abi":[{"inputs":[],"stateMutability":"nonpayable","type":"constructor"},{"inputs":[{"internalType":"address","name":"_address","type":"address"}],"name":"InvalidAddress","type":"error"},{"inputs":[{"internalType":"string","name":"reason","type":"string"}],"name":"InvalidCaller","type":"error"},{"anonymous":false,"inputs":[{"indexed":true,"internalType":"address","name":"oldOwner","type":"address"},{"indexed":false,"internalType":"address","name":"newOwner","type":"address"}],"name":"OwnershipTransfered","type":"event"},{"anonymous":false,"inputs":[{"indexed":true,"internalType":"address","name":"token0","type":"address"},{"indexed":true,"internalType":"address","name":"token1","type":"address"},{"indexed":true,"internalType":"uint256","name":"fee","type":"uint256"},{"indexed":false,"internalType":"address","name":"pool","type":"address"}],"name":"PoolCreated","type":"event"},{"inputs":[],"name":"claimOwnership","outputs":[],"stateMutability":"nonpayable","type":"function"},{"inputs":[{"internalType":"address","name":"initialImplementation","type":"address"},{"internalType":"address","name":"tokenA","type":"address"},{"internalType":"address","name":"tokenB","type":"address"},{"internalType":"uint256","name":"fee","type":"uint256"}],"name":"createPool","outputs":[{"internalType":"address","name":"pool","type":"address"}],"stateMutability":"nonpayable","type":"function"},{"inputs":[{"internalType":"address","name":"","type":"address"},{"internalType":"address","name":"","type":"address"},{"internalType":"uint256","name":"","type":"uint256"}],"name":"getPool","outputs":[{"internalType":"address","name":"","type":"address"}],"stateMutability":"view","type":"function"},{"inputs":[],"name":"owner","outputs":[{"internalType":"address","name":"","type":"address"}],"stateMutability":"view","type":"function"},{"inputs":[],"name":"pendingOwner","outputs":[{"internalType":"address","name":"","type":"address"}],"stateMutability":"view","type":"function"},{"inputs":[{"internalType":"address","name":"newOwner","type":"address"},{"internalType":"bool","name":"direct","type":"bool"}],"name":"transferOwnership","outputs":[],"stateMutability":"nonpayable","type":"function"}],"evm":{"bytecode":{"linkReferences":{},"object":"608060405234801561001057600080fd5b50336000806101000a81548173ffffffffffffffffffffffffffffffffffffffff021916908373ffffffffffffffffffffffffffffffffffffffff1602179055506118d1806100606000396000f3fe60806040523480156200001157600080fd5b50600436106200006a5760003560e01c80634e71e0c8146200006f5780638da5cb5b146200007b57806393c907b4146200009d578063acf6cc1a14620000d3578063b242e5341462000109578063e30c39781462000129575b600080fd5b620000796200014b565b005b62000085620002f4565b60405162000094919062000884565b60405180910390f35b620000bb6004803603810190620000b5919062000912565b62000318565b604051620000ca919062000884565b60405180910390f35b620000f16004803603810190620000eb919062000984565b62000603565b60405162000100919062000884565b60405180910390f35b62000127600480360381019062000121919062000a1d565b62000652565b005b620001336200080b565b60405162000142919062000884565b60405180910390f35b600160009054906101000a900473ffffffffffffffffffffffffffffffffffffffff1673ffffffffffffffffffffffffffffffffffffffff163373ffffffffffffffffffffffffffffffffffffffff1614620001de576040517f7c0232c3000000000000000000000000000000000000000000000000000000008152600401620001d59062000ac5565b60405180910390fd5b60008054906101000a900473ffffffffffffffffffffffffffffffffffffffff1673ffffffffffffffffffffffffffffffffffffffff167f0d18b5fd22306e373229b9439188228edca81207d1667f604daf6cef8aa3ee67600160009054906101000a900473ffffffffffffffffffffffffffffffffffffffff1660405162000268919062000884565b60405180910390a2336000806101000a81548173ffffffffffffffffffffffffffffffffffffffff021916908373ffffffffffffffffffffffffffffffffffffffff1602179055506000600160006101000a81548173ffffffffffffffffffffffffffffffffffffffff021916908373ffffffffffffffffffffffffffffffffffffffff160217905550565b60008054906101000a900473ffffffffffffffffffffffffffffffffffffffff1681565b600080631fa746f860e01b3060008054906101000a900473ffffffffffffffffffffffffffffffffffffffff168787876040516024016200035e95949392919062000af8565b604051602081830303815290604052907bffffffffffffffffffffffffffffffffffffffffffffffffffffffff19166020820180517bffffffffffffffffffffffffffffffffffffffffffffffffffffffff838183161783525050505090508581604051620003cd9062000831565b620003da92919062000bef565b604051809103906000f080158015620003f7573d6000803e3d6000fd5b50915081600260008773ffffffffffffffffffffffffffffffffffffffff1673ffffffffffffffffffffffffffffffffffffffff16815260200190815260200160002060008673ffffffffffffffffffffffffffffffffffffffff1673ffffffffffffffffffffffffffffffffffffffff168152602001908152602001600020600085815260200190815260200160002060006101000a81548173ffffffffffffffffffffffffffffffffffffffff021916908373ffffffffffffffffffffffffffffffffffffffff16021790555081600260008673ffffffffffffffffffffffffffffffffffffffff1673ffffffffffffffffffffffffffffffffffffffff16815260200190815260200160002060008773ffffffffffffffffffffffffffffffffffffffff1673ffffffffffffffffffffffffffffffffffffffff168152602001908152602001600020600085815260200190815260200160002060006101000a81548173ffffffffffffffffffffffffffffffffffffffff021916908373ffffffffffffffffffffffffffffffffffffffff160217905550828473ffffffffffffffffffffffffffffffffffffffff168673ffffffffffffffffffffffffffffffffffffffff167f0537d3e5d88810bbfb16874b28bc0f95856d7bb24c8f29511fe463c5b1d27c6b85604051620005f2919062000884565b60405180910390a450949350505050565b6002602052826000526040600020602052816000526040600020602052806000526040600020600092509250509054906101000a900473ffffffffffffffffffffffffffffffffffffffff1681565b8015620007c557600073ffffffffffffffffffffffffffffffffffffffff168273ffffffffffffffffffffffffffffffffffffffff1603620006cd57816040517f8e4c8aa6000000000000000000000000000000000000000000000000000000008152600401620006c4919062000884565b60405180910390fd5b60008054906101000a900473ffffffffffffffffffffffffffffffffffffffff1673ffffffffffffffffffffffffffffffffffffffff167f0d18b5fd22306e373229b9439188228edca81207d1667f604daf6cef8aa3ee678360405162000735919062000884565b60405180910390a2816000806101000a81548173ffffffffffffffffffffffffffffffffffffffff021916908373ffffffffffffffffffffffffffffffffffffffff1602179055506000600160006101000a81548173ffffffffffffffffffffffffffffffffffffffff021916908373ffffffffffffffffffffffffffffffffffffffff16021790555062000807565b81600160006101000a81548173ffffffffffffffffffffffffffffffffffffffff021916908373ffffffffffffffffffffffffffffffffffffffff1602179055505b5050565b600160009054906101000a900473ffffffffffffffffffffffffffffffffffffffff1681565b610c788062000c2483390190565b600073ffffffffffffffffffffffffffffffffffffffff82169050919050565b60006200086c826200083f565b9050919050565b6200087e816200085f565b82525050565b60006020820190506200089b600083018462000873565b92915050565b600080fd5b620008b1816200085f565b8114620008bd57600080fd5b50565b600081359050620008d181620008a6565b92915050565b6000819050919050565b620008ec81620008d7565b8114620008f857600080fd5b50565b6000813590506200090c81620008e1565b92915050565b600080600080608085870312156200092f576200092e620008a1565b5b60006200093f87828801620008c0565b94505060206200095287828801620008c0565b93505060406200096587828801620008c0565b92505060606200097887828801620008fb565b91505092959194509250565b600080600060608486031215620009a0576200099f620008a1565b5b6000620009b086828701620008c0565b9350506020620009c386828701620008c0565b9250506040620009d686828701620008fb565b9150509250925092565b60008115159050919050565b620009f781620009e0565b811462000a0357600080fd5b50565b60008135905062000a1781620009ec565b92915050565b6000806040838503121562000a375762000a36620008a1565b5b600062000a4785828601620008c0565b925050602062000a5a8582860162000a06565b9150509250929050565b600082825260208201905092915050565b7f4f776e61626c653a2063616c6c657220213d2070656e64696e674f776e657200600082015250565b600062000aad601f8362000a64565b915062000aba8262000a75565b602082019050919050565b6000602082019050818103600083015262000ae08162000a9e565b9050919050565b62000af281620008d7565b82525050565b600060a08201905062000b0f600083018862000873565b62000b1e602083018762000873565b62000b2d604083018662000873565b62000b3c606083018562000873565b62000b4b608083018462000ae7565b9695505050505050565b600081519050919050565b600082825260208201905092915050565b60005b8381101562000b9157808201518184015260208101905062000b74565b60008484015250505050565b6000601f19601f8301169050919050565b600062000bbb8262000b55565b62000bc7818562000b60565b935062000bd981856020860162000b71565b62000be48162000b9d565b840191505092915050565b600060408201905062000c06600083018562000873565b818103602083015262000c1a818462000bae565b9050939250505056fe60806040523480156200001157600080fd5b5060405162000c7838038062000c78833981810160405281019062000037919062000572565b81816200004d828260006200005760201b60201c565b50505050620007ef565b62000068836200009a60201b60201c565b600082511180620000765750805b156200009557620000938383620000f160201b620000371760201c565b505b505050565b620000ab816200012760201b60201c565b8073ffffffffffffffffffffffffffffffffffffffff167fbc7cd75a20ee27fd9adebab32041f755214dbc6bffa90cc0225b39da2e5c2d3b60405160405180910390a250565b60606200011f838360405180606001604052806027815260200162000c5160279139620001fd60201b60201c565b905092915050565b6200013d81620002e160201b620000641760201c565b6200017f576040517f08c379a000000000000000000000000000000000000000000000000000000000815260040162000176906200065f565b60405180910390fd5b80620001b97f360894a13ba1a3210667c828492db98dca3e2076cc3735a920a3ca505d382bbc60001b6200030460201b620000871760201c565b60000160006101000a81548173ffffffffffffffffffffffffffffffffffffffff021916908373ffffffffffffffffffffffffffffffffffffffff16021790555050565b60606200021084620002e160201b60201c565b62000252576040517f08c379a00000000000000000000000000000000000000000000000000000000081526004016200024990620006f7565b60405180910390fd5b6000808573ffffffffffffffffffffffffffffffffffffffff16856040516200027c919062000766565b600060405180830381855af49150503d8060008114620002b9576040519150601f19603f3d011682016040523d82523d6000602084013e620002be565b606091505b5091509150620002d68282866200030e60201b60201c565b925050509392505050565b6000808273ffffffffffffffffffffffffffffffffffffffff163b119050919050565b6000819050919050565b60608315620003205782905062000373565b600083511115620003345782518084602001fd5b816040517f08c379a00000000000000000000000000000000000000000000000000000000081526004016200036a9190620007cb565b60405180910390fd5b9392505050565b6000604051905090565b600080fd5b600080fd5b600073ffffffffffffffffffffffffffffffffffffffff82169050919050565b6000620003bb826200038e565b9050919050565b620003cd81620003ae565b8114620003d957600080fd5b50565b600081519050620003ed81620003c2565b92915050565b600080fd5b600080fd5b6000601f19601f8301169050919050565b7f4e487b7100000000000000000000000000000000000000000000000000000000600052604160045260246000fd5b6200044882620003fd565b810181811067ffffffffffffffff821117156200046a57620004696200040e565b5b80604052505050565b60006200047f6200037a565b90506200048d82826200043d565b919050565b600067ffffffffffffffff821115620004b057620004af6200040e565b5b620004bb82620003fd565b9050602081019050919050565b60005b83811015620004e8578082015181840152602081019050620004cb565b60008484015250505050565b60006200050b620005058462000492565b62000473565b9050828152602081018484840111156200052a5762000529620003f8565b5b62000537848285620004c8565b509392505050565b600082601f830112620005575762000556620003f3565b5b815162000569848260208601620004f4565b91505092915050565b600080604083850312156200058c576200058b62000384565b5b60006200059c85828601620003dc565b925050602083015167ffffffffffffffff811115620005c057620005bf62000389565b5b620005ce858286016200053f565b9150509250929050565b600082825260208201905092915050565b7f455243313936373a206e657720696d706c656d656e746174696f6e206973206e60008201527f6f74206120636f6e747261637400000000000000000000000000000000000000602082015250565b600062000647602d83620005d8565b91506200065482620005e9565b604082019050919050565b600060208201905081810360008301526200067a8162000638565b9050919050565b7f416464726573733a2064656c65676174652063616c6c20746f206e6f6e2d636f60008201527f6e74726163740000000000000000000000000000000000000000000000000000602082015250565b6000620006df602683620005d8565b9150620006ec8262000681565b604082019050919050565b600060208201905081810360008301526200071281620006d0565b9050919050565b600081519050919050565b600081905092915050565b60006200073c8262000719565b62000748818562000724565b93506200075a818560208601620004c8565b80840191505092915050565b60006200077482846200072f565b915081905092915050565b600081519050919050565b600062000797826200077f565b620007a38185620005d8565b9350620007b5818560208601620004c8565b620007c081620003fd565b840191505092915050565b60006020820190508181036000830152620007e781846200078a565b905092915050565b61045280620007ff6000396000f3fe6080604052366100135761001161001d565b005b61001b61001d565b005b610025610091565b610035610030610093565b6100a2565b565b606061005c83836040518060600160405280602781526020016103f6602791396100c8565b905092915050565b6000808273ffffffffffffffffffffffffffffffffffffffff163b119050919050565b6000819050919050565b565b600061009d610195565b905090565b3660008037600080366000845af43d6000803e80600081146100c3573d6000f35b3d6000fd5b60606100d384610064565b610112576040517f08c379a0000000000000000000000000000000000000000000000000000000008152600401610109906102d6565b60405180910390fd5b6000808573ffffffffffffffffffffffffffffffffffffffff168560405161013a9190610367565b600060405180830381855af49150503d8060008114610175576040519150601f19603f3d011682016040523d82523d6000602084013e61017a565b606091505b509150915061018a8282866101ec565b925050509392505050565b60006101c37f360894a13ba1a3210667c828492db98dca3e2076cc3735a920a3ca505d382bbc60001b610087565b60000160009054906101000a900473ffffffffffffffffffffffffffffffffffffffff16905090565b606083156101fc5782905061024c565b60008351111561020f5782518084602001fd5b816040517f08c379a000000000000000000000000000000000000000000000000000000000815260040161024391906103d3565b60405180910390fd5b9392505050565b600082825260208201905092915050565b7f416464726573733a2064656c65676174652063616c6c20746f206e6f6e2d636f60008201527f6e74726163740000000000000000000000000000000000000000000000000000602082015250565b60006102c0602683610253565b91506102cb82610264565b604082019050919050565b600060208201905081810360008301526102ef816102b3565b9050919050565b600081519050919050565b600081905092915050565b60005b8381101561032a57808201518184015260208101905061030f565b60008484015250505050565b6000610341826102f6565b61034b8185610301565b935061035b81856020860161030c565b80840191505092915050565b60006103738284610336565b915081905092915050565b600081519050919050565b6000601f19601f8301169050919050565b60006103a58261037e565b6103af8185610253565b93506103bf81856020860161030c565b6103c881610389565b840191505092915050565b600060208201905081810360008301526103ed818461039a565b90509291505056fe416464726573733a206c6f772d6c6576656c2064656c65676174652063616c6c206661696c6564a2646970667358221220ac0a42226435895d298c0d1e8429d4f93a0e514e1010c6f19ac2c14404d2379664736f6c63430008110033416464726573733a206c6f772d6c6576656c2064656c65676174652063616c6c206661696c6564a2646970667358221220f401a925c0b68d155b9a3936a1c7e10fc029968bfc511fd5a532641b7ffddb0764736f6c63430008110033","opcodes":"PUSH1 0x80 PUSH1 0x40 MSTORE CALLVALUE DUP1 ISZERO PUSH2 0x10 JUMPI PUSH1 0x0 DUP1 REVERT JUMPDEST POP CALLER PUSH1 0x0 DUP1 PUSH2 0x100 EXP DUP2 SLOAD DUP2 PUSH20 0xFFFFFFFFFFFFFFFFFFFFFFFFFFFFFFFFFFFFFFFF MUL NOT AND SWAP1 DUP4 PUSH20 0xFFFFFFFFFFFFFFFFFFFFFFFFFFFFFFFFFFFFFFFF AND MUL OR SWAP1 SSTORE POP PUSH2 0x18D1 DUP1 PUSH2 0x60 PUSH1 0x0 CODECOPY PUSH1 0x0 RETURN INVALID PUSH1 0x80 PUSH1 0x40 MSTORE CALLVALUE DUP1 ISZERO PUSH3 0x11 JUMPI PUSH1 0x0 DUP1 REVERT JUMPDEST POP PUSH1 0x4 CALLDATASIZE LT PUSH3 0x6A JUMPI PUSH1 0x0 CALLDATALOAD PUSH1 0xE0 SHR DUP1 PUSH4 0x4E71E0C8 EQ PUSH3 0x6F JUMPI DUP1 PUSH4 0x8DA5CB5B EQ PUSH3 0x7B JUMPI DUP1 PUSH4 0x93C907B4 EQ PUSH3 0x9D JUMPI DUP1 PUSH4 0xACF6CC1A EQ PUSH3 0xD3 JUMPI DUP1 PUSH4 0xB242E534 EQ PUSH3 0x109 JUMPI DUP1 PUSH4 0xE30C3978 EQ PUSH3 0x129 JUMPI JUMPDEST PUSH1 0x0 DUP1 REVERT JUMPDEST PUSH3 0x79 PUSH3 0x14B JUMP JUMPDEST STOP JUMPDEST PUSH3 0x85 PUSH3 0x2F4 JUMP JUMPDEST PUSH1 0x40 MLOAD PUSH3 0x94 SWAP2 SWAP1 PUSH3 0x884 JUMP JUMPDEST PUSH1 0x40 MLOAD DUP1 SWAP2 SUB SWAP1 RETURN JUMPDEST PUSH3 0xBB PUSH1 0x4 DUP1 CALLDATASIZE SUB DUP2 ADD SWAP1 PUSH3 0xB5 SWAP2 SWAP1 PUSH3 0x912 JUMP JUMPDEST PUSH3 0x318 JUMP JUMPDEST PUSH1 0x40 MLOAD PUSH3 0xCA SWAP2 SWAP1 PUSH3 0x884 JUMP JUMPDEST PUSH1 0x40 MLOAD DUP1 SWAP2 SUB SWAP1 RETURN JUMPDEST PUSH3 0xF1 PUSH1 0x4 DUP1 CALLDATASIZE SUB DUP2 ADD SWAP1 PUSH3 0xEB SWAP2 SWAP1 PUSH3 0x984 JUMP JUMPDEST PUSH3 0x603 JUMP JUMPDEST PUSH1 0x40 MLOAD PUSH3 0x100 SWAP2 SWAP1 PUSH3 0x884 JUMP JUMPDEST PUSH1 0x40 MLOAD DUP1 SWAP2 SUB SWAP1 RETURN JUMPDEST PUSH3 0x127 PUSH1 0x4 DUP1 CALLDATASIZE SUB DUP2 ADD SWAP1 PUSH3 0x121 SWAP2 SWAP1 PUSH3 0xA1D JUMP JUMPDEST PUSH3 0x652 JUMP JUMPDEST STOP JUMPDEST PUSH3 0x133 PUSH3 0x80B JUMP JUMPDEST PUSH1 0x40 MLOAD PUSH3 0x142 SWAP2 SWAP1 PUSH3 0x884 JUMP JUMPDEST PUSH1 0x40 MLOAD DUP1 SWAP2 SUB SWAP1 RETURN JUMPDEST PUSH1 0x1 PUSH1 0x0 SWAP1 SLOAD SWAP1 PUSH2 0x100 EXP SWAP1 DIV PUSH20 0xFFFFFFFFFFFFFFFFFFFFFFFFFFFFFFFFFFFFFFFF AND PUSH20 0xFFFFFFFFFFFFFFFFFFFFFFFFFFFFFFFFFFFFFFFF AND CALLER PUSH20 0xFFFFFFFFFFFFFFFFFFFFFFFFFFFFFFFFFFFFFFFF AND EQ PUSH3 0x1DE JUMPI PUSH1 0x40 MLOAD PUSH32 0x7C0232C300000000000000000000000000000000000000000000000000000000 DUP2 MSTORE PUSH1 0x4 ADD PUSH3 0x1D5 SWAP1 PUSH3 0xAC5 JUMP JUMPDEST PUSH1 0x40 MLOAD DUP1 SWAP2 SUB SWAP1 REVERT JUMPDEST PUSH1 0x0 DUP1 SLOAD SWAP1 PUSH2 0x100 EXP SWAP1 DIV PUSH20 0xFFFFFFFFFFFFFFFFFFFFFFFFFFFFFFFFFFFFFFFF AND PUSH20 0xFFFFFFFFFFFFFFFFFFFFFFFFFFFFFFFFFFFFFFFF AND PUSH32 0xD18B5FD22306E373229B9439188228EDCA81207D1667F604DAF6CEF8AA3EE67 PUSH1 0x1 PUSH1 0x0 SWAP1 SLOAD SWAP1 PUSH2 0x100 EXP SWAP1 DIV PUSH20 0xFFFFFFFFFFFFFFFFFFFFFFFFFFFFFFFFFFFFFFFF AND PUSH1 0x40 MLOAD PUSH3 0x268 SWAP2 SWAP1 PUSH3 0x884 JUMP JUMPDEST PUSH1 0x40 MLOAD DUP1 SWAP2 SUB SWAP1 LOG2 CALLER PUSH1 0x0 DUP1 PUSH2 0x100 EXP DUP2 SLOAD DUP2 PUSH20 0xFFFFFFFFFFFFFFFFFFFFFFFFFFFFFFFFFFFFFFFF MUL NOT AND SWAP1 DUP4 PUSH20 0xFFFFFFFFFFFFFFFFFFFFFFFFFFFFFFFFFFFFFFFF AND MUL OR SWAP1 SSTORE POP PUSH1 0x0 PUSH1 0x1 PUSH1 0x0 PUSH2 0x100 EXP DUP2 SLOAD DUP2 PUSH20 0xFFFFFFFFFFFFFFFFFFFFFFFFFFFFFFFFFFFFFFFF MUL NOT AND SWAP1 DUP4 PUSH20 0xFFFFFFFFFFFFFFFFFFFFFFFFFFFFFFFFFFFFFFFF AND MUL OR SWAP1 SSTORE POP JUMP JUMPDEST PUSH1 0x0 DUP1 SLOAD SWAP1 PUSH2 0x100 EXP SWAP1 DIV PUSH20 0xFFFFFFFFFFFFFFFFFFFFFFFFFFFFFFFFFFFFFFFF AND DUP2 JUMP JUMPDEST PUSH1 0x0 DUP1 PUSH4 0x1FA746F8 PUSH1 0xE0 SHL ADDRESS PUSH1 0x0 DUP1 SLOAD SWAP1 PUSH2 0x100 EXP SWAP1 DIV PUSH20 0xFFFFFFFFFFFFFFFFFFFFFFFFFFFFFFFFFFFFFFFF AND DUP8 DUP8 DUP8 PUSH1 0x40 MLOAD PUSH1 0x24 ADD PUSH3 0x35E SWAP6 SWAP5 SWAP4 SWAP3 SWAP2 SWAP1 PUSH3 0xAF8 JUMP JUMPDEST PUSH1 0x40 MLOAD PUSH1 0x20 DUP2 DUP4 SUB SUB DUP2 MSTORE SWAP1 PUSH1 0x40 MSTORE SWAP1 PUSH28 0xFFFFFFFFFFFFFFFFFFFFFFFFFFFFFFFFFFFFFFFFFFFFFFFFFFFFFFFF NOT AND PUSH1 0x20 DUP3 ADD DUP1 MLOAD PUSH28 0xFFFFFFFFFFFFFFFFFFFFFFFFFFFFFFFFFFFFFFFFFFFFFFFFFFFFFFFF DUP4 DUP2 DUP4 AND OR DUP4 MSTORE POP POP POP POP SWAP1 POP DUP6 DUP2 PUSH1 0x40 MLOAD PUSH3 0x3CD SWAP1 PUSH3 0x831 JUMP JUMPDEST PUSH3 0x3DA SWAP3 SWAP2 SWAP1 PUSH3 0xBEF JUMP JUMPDEST PUSH1 0x40 MLOAD DUP1 SWAP2 SUB SWAP1 PUSH1 0x0 CREATE DUP1 ISZERO DUP1 ISZERO PUSH3 0x3F7 JUMPI RETURNDATASIZE PUSH1 0x0 DUP1 RETURNDATACOPY RETURNDATASIZE PUSH1 0x0 REVERT JUMPDEST POP SWAP2 POP DUP2 PUSH1 0x2 PUSH1 0x0 DUP8 PUSH20 0xFFFFFFFFFFFFFFFFFFFFFFFFFFFFFFFFFFFFFFFF AND PUSH20 0xFFFFFFFFFFFFFFFFFFFFFFFFFFFFFFFFFFFFFFFF AND DUP2 MSTORE PUSH1 0x20 ADD SWAP1 DUP2 MSTORE PUSH1 0x20 ADD PUSH1 0x0 KECCAK256 PUSH1 0x0 DUP7 PUSH20 0xFFFFFFFFFFFFFFFFFFFFFFFFFFFFFFFFFFFFFFFF AND PUSH20 0xFFFFFFFFFFFFFFFFFFFFFFFFFFFFFFFFFFFFFFFF AND DUP2 MSTORE PUSH1 0x20 ADD SWAP1 DUP2 MSTORE PUSH1 0x20 ADD PUSH1 0x0 KECCAK256 PUSH1 0x0 DUP6 DUP2 MSTORE PUSH1 0x20 ADD SWAP1 DUP2 MSTORE PUSH1 0x20 ADD PUSH1 0x0 KECCAK256 PUSH1 0x0 PUSH2 0x100 EXP DUP2 SLOAD DUP2 PUSH20 0xFFFFFFFFFFFFFFFFFFFFFFFFFFFFFFFFFFFFFFFF MUL NOT AND SWAP1 DUP4 PUSH20 0xFFFFFFFFFFFFFFFFFFFFFFFFFFFFFFFFFFFFFFFF AND MUL OR SWAP1 SSTORE POP DUP2 PUSH1 0x2 PUSH1 0x0 DUP7 PUSH20 0xFFFFFFFFFFFFFFFFFFFFFFFFFFFFFFFFFFFFFFFF AND PUSH20 0xFFFFFFFFFFFFFFFFFFFFFFFFFFFFFFFFFFFFFFFF AND DUP2 MSTORE PUSH1 0x20 ADD SWAP1 DUP2 MSTORE PUSH1 0x20 ADD PUSH1 0x0 KECCAK256 PUSH1 0x0 DUP8 PUSH20 0xFFFFFFFFFFFFFFFFFFFFFFFFFFFFFFFFFFFFFFFF AND PUSH20 0xFFFFFFFFFFFFFFFFFFFFFFFFFFFFFFFFFFFFFFFF AND DUP2 MSTORE PUSH1 0x20 ADD SWAP1 DUP2 MSTORE PUSH1 0x20 ADD PUSH1 0x0 KECCAK256 PUSH1 0x0 DUP6 DUP2 MSTORE PUSH1 0x20 ADD SWAP1 DUP2 MSTORE PUSH1 0x20 ADD PUSH1 0x0 KECCAK256 PUSH1 0x0 PUSH2 0x100 EXP DUP2 SLOAD DUP2 PUSH20 0xFFFFFFFFFFFFFFFFFFFFFFFFFFFFFFFFFFFFFFFF MUL NOT AND SWAP1 DUP4 PUSH20 0xFFFFFFFFFFFFFFFFFFFFFFFFFFFFFFFFFFFFFFFF AND MUL OR SWAP1 SSTORE POP DUP3 DUP5 PUSH20 0xFFFFFFFFFFFFFFFFFFFFFFFFFFFFFFFFFFFFFFFF AND DUP7 PUSH20 0xFFFFFFFFFFFFFFFFFFFFFFFFFFFFFFFFFFFFFFFF AND PUSH32 0x537D3E5D88810BBFB16874B28BC0F95856D7BB24C8F29511FE463C5B1D27C6B DUP6 PUSH1 0x40 MLOAD PUSH3 0x5F2 SWAP2 SWAP1 PUSH3 0x884 JUMP JUMPDEST PUSH1 0x40 MLOAD DUP1 SWAP2 SUB SWAP1 LOG4 POP SWAP5 SWAP4 POP POP POP POP JUMP JUMPDEST PUSH1 0x2 PUSH1 0x20 MSTORE DUP3 PUSH1 0x0 MSTORE PUSH1 0x40 PUSH1 0x0 KECCAK256 PUSH1 0x20 MSTORE DUP2 PUSH1 0x0 MSTORE PUSH1 0x40 PUSH1 0x0 KECCAK256 PUSH1 0x20 MSTORE DUP1 PUSH1 0x0 MSTORE PUSH1 0x40 PUSH1 0x0 KECCAK256 PUSH1 0x0 SWAP3 POP SWAP3 POP POP SWAP1 SLOAD SWAP1 PUSH2 0x100 EXP SWAP1 DIV PUSH20 0xFFFFFFFFFFFFFFFFFFFFFFFFFFFFFFFFFFFFFFFF AND DUP2 JUMP JUMPDEST DUP1 ISZERO PUSH3 0x7C5 JUMPI PUSH1 0x0 PUSH20 0xFFFFFFFFFFFFFFFFFFFFFFFFFFFFFFFFFFFFFFFF AND DUP3 PUSH20 0xFFFFFFFFFFFFFFFFFFFFFFFFFFFFFFFFFFFFFFFF AND SUB PUSH3 0x6CD JUMPI DUP2 PUSH1 0x40 MLOAD PUSH32 0x8E4C8AA600000000000000000000000000000000000000000000000000000000 DUP2 MSTORE PUSH1 0x4 ADD PUSH3 0x6C4 SWAP2 SWAP1 PUSH3 0x884 JUMP JUMPDEST PUSH1 0x40 MLOAD DUP1 SWAP2 SUB SWAP1 REVERT JUMPDEST PUSH1 0x0 DUP1 SLOAD SWAP1 PUSH2 0x100 EXP SWAP1 DIV PUSH20 0xFFFFFFFFFFFFFFFFFFFFFFFFFFFFFFFFFFFFFFFF AND PUSH20 0xFFFFFFFFFFFFFFFFFFFFFFFFFFFFFFFFFFFFFFFF AND PUSH32 0xD18B5FD22306E373229B9439188228EDCA81207D1667F604DAF6CEF8AA3EE67 DUP4 PUSH1 0x40 MLOAD PUSH3 0x735 SWAP2 SWAP1 PUSH3 0x884 JUMP JUMPDEST PUSH1 0x40 MLOAD DUP1 SWAP2 SUB SWAP1 LOG2 DUP2 PUSH1 0x0 DUP1 PUSH2 0x100 EXP DUP2 SLOAD DUP2 PUSH20 0xFFFFFFFFFFFFFFFFFFFFFFFFFFFFFFFFFFFFFFFF MUL NOT AND SWAP1 DUP4 PUSH20 0xFFFFFFFFFFFFFFFFFFFFFFFFFFFFFFFFFFFFFFFF AND MUL OR SWAP1 SSTORE POP PUSH1 0x0 PUSH1 0x1 PUSH1 0x0 PUSH2 0x100 EXP DUP2 SLOAD DUP2 PUSH20 0xFFFFFFFFFFFFFFFFFFFFFFFFFFFFFFFFFFFFFFFF MUL NOT AND SWAP1 DUP4 PUSH20 0xFFFFFFFFFFFFFFFFFFFFFFFFFFFFFFFFFFFFFFFF AND MUL OR SWAP1 SSTORE POP PUSH3 0x807 JUMP JUMPDEST DUP2 PUSH1 0x1 PUSH1 0x0 PUSH2 0x100 EXP DUP2 SLOAD DUP2 PUSH20 0xFFFFFFFFFFFFFFFFFFFFFFFFFFFFFFFFFFFFFFFF MUL NOT AND SWAP1 DUP4 PUSH20 0xFFFFFFFFFFFFFFFFFFFFFFFFFFFFFFFFFFFFFFFF AND MUL OR SWAP1 SSTORE POP JUMPDEST POP POP JUMP JUMPDEST PUSH1 0x1 PUSH1 0x0 SWAP1 SLOAD SWAP1 PUSH2 0x100 EXP SWAP1 DIV PUSH20 0xFFFFFFFFFFFFFFFFFFFFFFFFFFFFFFFFFFFFFFFF AND DUP2 JUMP JUMPDEST PUSH2 0xC78 DUP1 PUSH3 0xC24 DUP4 CODECOPY ADD SWAP1 JUMP JUMPDEST PUSH1 0x0 PUSH20 0xFFFFFFFFFFFFFFFFFFFFFFFFFFFFFFFFFFFFFFFF DUP3 AND SWAP1 POP SWAP2 SWAP1 POP JUMP JUMPDEST PUSH1 0x0 PUSH3 0x86C DUP3 PUSH3 0x83F JUMP JUMPDEST SWAP1 POP SWAP2 SWAP1 POP JUMP JUMPDEST PUSH3 0x87E DUP2 PUSH3 0x85F JUMP JUMPDEST DUP3 MSTORE POP POP JUMP JUMPDEST PUSH1 0x0 PUSH1 0x20 DUP3 ADD SWAP1 POP PUSH3 0x89B PUSH1 0x0 DUP4 ADD DUP5 PUSH3 0x873 JUMP JUMPDEST SWAP3 SWAP2 POP POP JUMP JUMPDEST PUSH1 0x0 DUP1 REVERT JUMPDEST PUSH3 0x8B1 DUP2 PUSH3 0x85F JUMP JUMPDEST DUP2 EQ PUSH3 0x8BD JUMPI PUSH1 0x0 DUP1 REVERT JUMPDEST POP JUMP JUMPDEST PUSH1 0x0 DUP2 CALLDATALOAD SWAP1 POP PUSH3 0x8D1 DUP2 PUSH3 0x8A6 JUMP JUMPDEST SWAP3 SWAP2 POP POP JUMP JUMPDEST PUSH1 0x0 DUP2 SWAP1 POP SWAP2 SWAP1 POP JUMP JUMPDEST PUSH3 0x8EC DUP2 PUSH3 0x8D7 JUMP JUMPDEST DUP2 EQ PUSH3 0x8F8 JUMPI PUSH1 0x0 DUP1 REVERT JUMPDEST POP JUMP JUMPDEST PUSH1 0x0 DUP2 CALLDATALOAD SWAP1 POP PUSH3 0x90C DUP2 PUSH3 0x8E1 JUMP JUMPDEST SWAP3 SWAP2 POP POP JUMP JUMPDEST PUSH1 0x0 DUP1 PUSH1 0x0 DUP1 PUSH1 0x80 DUP6 DUP8 SUB SLT ISZERO PUSH3 0x92F JUMPI PUSH3 0x92E PUSH3 0x8A1 JUMP JUMPDEST JUMPDEST PUSH1 0x0 PUSH3 0x93F DUP8 DUP3 DUP9 ADD PUSH3 0x8C0 JUMP JUMPDEST SWAP5 POP POP PUSH1 0x20 PUSH3 0x952 DUP8 DUP3 DUP9 ADD PUSH3 0x8C0 JUMP JUMPDEST SWAP4 POP POP PUSH1 0x40 PUSH3 0x965 DUP8 DUP3 DUP9 ADD PUSH3 0x8C0 JUMP JUMPDEST SWAP3 POP POP PUSH1 0x60 PUSH3 0x978 DUP8 DUP3 DUP9 ADD PUSH3 0x8FB JUMP JUMPDEST SWAP2 POP POP SWAP3 SWAP6 SWAP2 SWAP5 POP SWAP3 POP JUMP JUMPDEST PUSH1 0x0 DUP1 PUSH1 0x0 PUSH1 0x60 DUP5 DUP7 SUB SLT ISZERO PUSH3 0x9A0 JUMPI PUSH3 0x99F PUSH3 0x8A1 JUMP JUMPDEST JUMPDEST PUSH1 0x0 PUSH3 0x9B0 DUP7 DUP3 DUP8 ADD PUSH3 0x8C0 JUMP JUMPDEST SWAP4 POP POP PUSH1 0x20 PUSH3 0x9C3 DUP7 DUP3 DUP8 ADD PUSH3 0x8C0 JUMP JUMPDEST SWAP3 POP POP PUSH1 0x40 PUSH3 0x9D6 DUP7 DUP3 DUP8 ADD PUSH3 0x8FB JUMP JUMPDEST SWAP2 POP POP SWAP3 POP SWAP3 POP SWAP3 JUMP JUMPDEST PUSH1 0x0 DUP2 ISZERO ISZERO SWAP1 POP SWAP2 SWAP1 POP JUMP JUMPDEST PUSH3 0x9F7 DUP2 PUSH3 0x9E0 JUMP JUMPDEST DUP2 EQ PUSH3 0xA03 JUMPI PUSH1 0x0 DUP1 REVERT JUMPDEST POP JUMP JUMPDEST PUSH1 0x0 DUP2 CALLDATALOAD SWAP1 POP PUSH3 0xA17 DUP2 PUSH3 0x9EC JUMP JUMPDEST SWAP3 SWAP2 POP POP JUMP JUMPDEST PUSH1 0x0 DUP1 PUSH1 0x40 DUP4 DUP6 SUB SLT ISZERO PUSH3 0xA37 JUMPI PUSH3 0xA36 PUSH3 0x8A1 JUMP JUMPDEST JUMPDEST PUSH1 0x0 PUSH3 0xA47 DUP6 DUP3 DUP7 ADD PUSH3 0x8C0 JUMP JUMPDEST SWAP3 POP POP PUSH1 0x20 PUSH3 0xA5A DUP6 DUP3 DUP7 ADD PUSH3 0xA06 JUMP JUMPDEST SWAP2 POP POP SWAP3 POP SWAP3 SWAP1 POP JUMP JUMPDEST PUSH1 0x0 DUP3 DUP3 MSTORE PUSH1 0x20 DUP3 ADD SWAP1 POP SWAP3 SWAP2 POP POP JUMP JUMPDEST PUSH32 0x4F776E61626C653A2063616C6C657220213D2070656E64696E674F776E657200 PUSH1 0x0 DUP3 ADD MSTORE POP JUMP JUMPDEST PUSH1 0x0 PUSH3 0xAAD PUSH1 0x1F DUP4 PUSH3 0xA64 JUMP JUMPDEST SWAP2 POP PUSH3 0xABA DUP3 PUSH3 0xA75 JUMP JUMPDEST PUSH1 0x20 DUP3 ADD SWAP1 POP SWAP2 SWAP1 POP JUMP JUMPDEST PUSH1 0x0 PUSH1 0x20 DUP3 ADD SWAP1 POP DUP2 DUP2 SUB PUSH1 0x0 DUP4 ADD MSTORE PUSH3 0xAE0 DUP2 PUSH3 0xA9E JUMP JUMPDEST SWAP1 POP SWAP2 SWAP1 POP JUMP JUMPDEST PUSH3 0xAF2 DUP2 PUSH3 0x8D7 JUMP JUMPDEST DUP3 MSTORE POP POP JUMP JUMPDEST PUSH1 0x0 PUSH1 0xA0 DUP3 ADD SWAP1 POP PUSH3 0xB0F PUSH1 0x0 DUP4 ADD DUP9 PUSH3 0x873 JUMP JUMPDEST PUSH3 0xB1E PUSH1 0x20 DUP4 ADD DUP8 PUSH3 0x873 JUMP JUMPDEST PUSH3 0xB2D PUSH1 0x40 DUP4 ADD DUP7 PUSH3 0x873 JUMP JUMPDEST PUSH3 0xB3C PUSH1 0x60 DUP4 ADD DUP6 PUSH3 0x873 JUMP JUMPDEST PUSH3 0xB4B PUSH1 0x80 DUP4 ADD DUP5 PUSH3 0xAE7 JUMP JUMPDEST SWAP7 SWAP6 POP POP POP POP POP POP JUMP JUMPDEST PUSH1 0x0 DUP2 MLOAD SWAP1 POP SWAP2 SWAP1 POP JUMP JUMPDEST PUSH1 0x0 DUP3 DUP3 MSTORE PUSH1 0x20 DUP3 ADD SWAP1 POP SWAP3 SWAP2 POP POP JUMP JUMPDEST PUSH1 0x0 JUMPDEST DUP4 DUP2 LT ISZERO PUSH3 0xB91 JUMPI DUP1 DUP3 ADD MLOAD DUP2 DUP5 ADD MSTORE PUSH1 0x20 DUP2 ADD SWAP1 POP PUSH3 0xB74 JUMP JUMPDEST PUSH1 0x0 DUP5 DUP5 ADD MSTORE POP POP POP POP JUMP JUMPDEST PUSH1 0x0 PUSH1 0x1F NOT PUSH1 0x1F DUP4 ADD AND SWAP1 POP SWAP2 SWAP1 POP JUMP JUMPDEST PUSH1 0x0 PUSH3 0xBBB DUP3 PUSH3 0xB55 JUMP JUMPDEST PUSH3 0xBC7 DUP2 DUP6 PUSH3 0xB60 JUMP JUMPDEST SWAP4 POP PUSH3 0xBD9 DUP2 DUP6 PUSH1 0x20 DUP7 ADD PUSH3 0xB71 JUMP JUMPDEST PUSH3 0xBE4 DUP2 PUSH3 0xB9D JUMP JUMPDEST DUP5 ADD SWAP2 POP POP SWAP3 SWAP2 POP POP JUMP JUMPDEST PUSH1 0x0 PUSH1 0x40 DUP3 ADD SWAP1 POP PUSH3 0xC06 PUSH1 0x0 DUP4 ADD DUP6 PUSH3 0x873 JUMP JUMPDEST DUP2 DUP2 SUB PUSH1 0x20 DUP4 ADD MSTORE PUSH3 0xC1A DUP2 DUP5 PUSH3 0xBAE JUMP JUMPDEST SWAP1 POP SWAP4 SWAP3 POP POP POP JUMP INVALID PUSH1 0x80 PUSH1 0x40 MSTORE CALLVALUE DUP1 ISZERO PUSH3 0x11 JUMPI PUSH1 0x0 DUP1 REVERT JUMPDEST POP PUSH1 0x40 MLOAD PUSH3 0xC78 CODESIZE SUB DUP1 PUSH3 0xC78 DUP4 CODECOPY DUP2 DUP2 ADD PUSH1 0x40 MSTORE DUP2 ADD SWAP1 PUSH3 0x37 SWAP2 SWAP1 PUSH3 0x572 JUMP JUMPDEST DUP2 DUP2 PUSH3 0x4D DUP3 DUP3 PUSH1 0x0 PUSH3 0x57 PUSH1 0x20 SHL PUSH1 0x20 SHR JUMP JUMPDEST POP POP POP POP PUSH3 0x7EF JUMP JUMPDEST PUSH3 0x68 DUP4 PUSH3 0x9A PUSH1 0x20 SHL PUSH1 0x20 SHR JUMP JUMPDEST PUSH1 0x0 DUP3 MLOAD GT DUP1 PUSH3 0x76 JUMPI POP DUP1 JUMPDEST ISZERO PUSH3 0x95 JUMPI PUSH3 0x93 DUP4 DUP4 PUSH3 0xF1 PUSH1 0x20 SHL PUSH3 0x37 OR PUSH1 0x20 SHR JUMP JUMPDEST POP JUMPDEST POP POP POP JUMP JUMPDEST PUSH3 0xAB DUP2 PUSH3 0x127 PUSH1 0x20 SHL PUSH1 0x20 SHR JUMP JUMPDEST DUP1 PUSH20 0xFFFFFFFFFFFFFFFFFFFFFFFFFFFFFFFFFFFFFFFF AND PUSH32 0xBC7CD75A20EE27FD9ADEBAB32041F755214DBC6BFFA90CC0225B39DA2E5C2D3B PUSH1 0x40 MLOAD PUSH1 0x40 MLOAD DUP1 SWAP2 SUB SWAP1 LOG2 POP JUMP JUMPDEST PUSH1 0x60 PUSH3 0x11F DUP4 DUP4 PUSH1 0x40 MLOAD DUP1 PUSH1 0x60 ADD PUSH1 0x40 MSTORE DUP1 PUSH1 0x27 DUP2 MSTORE PUSH1 0x20 ADD PUSH3 0xC51 PUSH1 0x27 SWAP2 CODECOPY PUSH3 0x1FD PUSH1 0x20 SHL PUSH1 0x20 SHR JUMP JUMPDEST SWAP1 POP SWAP3 SWAP2 POP POP JUMP JUMPDEST PUSH3 0x13D DUP2 PUSH3 0x2E1 PUSH1 0x20 SHL PUSH3 0x64 OR PUSH1 0x20 SHR JUMP JUMPDEST PUSH3 0x17F JUMPI PUSH1 0x40 MLOAD PUSH32 0x8C379A000000000000000000000000000000000000000000000000000000000 DUP2 MSTORE PUSH1 0x4 ADD PUSH3 0x176 SWAP1 PUSH3 0x65F JUMP JUMPDEST PUSH1 0x40 MLOAD DUP1 SWAP2 SUB SWAP1 REVERT JUMPDEST DUP1 PUSH3 0x1B9 PUSH32 0x360894A13BA1A3210667C828492DB98DCA3E2076CC3735A920A3CA505D382BBC PUSH1 0x0 SHL PUSH3 0x304 PUSH1 0x20 SHL PUSH3 0x87 OR PUSH1 0x20 SHR JUMP JUMPDEST PUSH1 0x0 ADD PUSH1 0x0 PUSH2 0x100 EXP DUP2 SLOAD DUP2 PUSH20 0xFFFFFFFFFFFFFFFFFFFFFFFFFFFFFFFFFFFFFFFF MUL NOT AND SWAP1 DUP4 PUSH20 0xFFFFFFFFFFFFFFFFFFFFFFFFFFFFFFFFFFFFFFFF AND MUL OR SWAP1 SSTORE POP POP JUMP JUMPDEST PUSH1 0x60 PUSH3 0x210 DUP5 PUSH3 0x2E1 PUSH1 0x20 SHL PUSH1 0x20 SHR JUMP JUMPDEST PUSH3 0x252 JUMPI PUSH1 0x40 MLOAD PUSH32 0x8C379A000000000000000000000000000000000000000000000000000000000 DUP2 MSTORE PUSH1 0x4 ADD PUSH3 0x249 SWAP1 PUSH3 0x6F7 JUMP JUMPDEST PUSH1 0x40 MLOAD DUP1 SWAP2 SUB SWAP1 REVERT JUMPDEST PUSH1 0x0 DUP1 DUP6 PUSH20 0xFFFFFFFFFFFFFFFFFFFFFFFFFFFFFFFFFFFFFFFF AND DUP6 PUSH1 0x40 MLOAD PUSH3 0x27C SWAP2 SWAP1 PUSH3 0x766 JUMP JUMPDEST PUSH1 0x0 PUSH1 0x40 MLOAD DUP1 DUP4 SUB DUP2 DUP6 GAS DELEGATECALL SWAP2 POP POP RETURNDATASIZE DUP1 PUSH1 0x0 DUP2 EQ PUSH3 0x2B9 JUMPI PUSH1 0x40 MLOAD SWAP2 POP PUSH1 0x1F NOT PUSH1 0x3F RETURNDATASIZE ADD AND DUP3 ADD PUSH1 0x40 MSTORE RETURNDATASIZE DUP3 MSTORE RETURNDATASIZE PUSH1 0x0 PUSH1 0x20 DUP5 ADD RETURNDATACOPY PUSH3 0x2BE JUMP JUMPDEST PUSH1 0x60 SWAP2 POP JUMPDEST POP SWAP2 POP SWAP2 POP PUSH3 0x2D6 DUP3 DUP3 DUP7 PUSH3 0x30E PUSH1 0x20 SHL PUSH1 0x20 SHR JUMP JUMPDEST SWAP3 POP POP POP SWAP4 SWAP3 POP POP POP JUMP JUMPDEST PUSH1 0x0 DUP1 DUP3 PUSH20 0xFFFFFFFFFFFFFFFFFFFFFFFFFFFFFFFFFFFFFFFF AND EXTCODESIZE GT SWAP1 POP SWAP2 SWAP1 POP JUMP JUMPDEST PUSH1 0x0 DUP2 SWAP1 POP SWAP2 SWAP1 POP JUMP JUMPDEST PUSH1 0x60 DUP4 ISZERO PUSH3 0x320 JUMPI DUP3 SWAP1 POP PUSH3 0x373 JUMP JUMPDEST PUSH1 0x0 DUP4 MLOAD GT ISZERO PUSH3 0x334 JUMPI DUP3 MLOAD DUP1 DUP5 PUSH1 0x20 ADD REVERT JUMPDEST DUP2 PUSH1 0x40 MLOAD PUSH32 0x8C379A000000000000000000000000000000000000000000000000000000000 DUP2 MSTORE PUSH1 0x4 ADD PUSH3 0x36A SWAP2 SWAP1 PUSH3 0x7CB JUMP JUMPDEST PUSH1 0x40 MLOAD DUP1 SWAP2 SUB SWAP1 REVERT JUMPDEST SWAP4 SWAP3 POP POP POP JUMP JUMPDEST PUSH1 0x0 PUSH1 0x40 MLOAD SWAP1 POP SWAP1 JUMP JUMPDEST PUSH1 0x0 DUP1 REVERT JUMPDEST PUSH1 0x0 DUP1 REVERT JUMPDEST PUSH1 0x0 PUSH20 0xFFFFFFFFFFFFFFFFFFFFFFFFFFFFFFFFFFFFFFFF DUP3 AND SWAP1 POP SWAP2 SWAP1 POP JUMP JUMPDEST PUSH1 0x0 PUSH3 0x3BB DUP3 PUSH3 0x38E JUMP JUMPDEST SWAP1 POP SWAP2 SWAP1 POP JUMP JUMPDEST PUSH3 0x3CD DUP2 PUSH3 0x3AE JUMP JUMPDEST DUP2 EQ PUSH3 0x3D9 JUMPI PUSH1 0x0 DUP1 REVERT JUMPDEST POP JUMP JUMPDEST PUSH1 0x0 DUP2 MLOAD SWAP1 POP PUSH3 0x3ED DUP2 PUSH3 0x3C2 JUMP JUMPDEST SWAP3 SWAP2 POP POP JUMP JUMPDEST PUSH1 0x0 DUP1 REVERT JUMPDEST PUSH1 0x0 DUP1 REVERT JUMPDEST PUSH1 0x0 PUSH1 0x1F NOT PUSH1 0x1F DUP4 ADD AND SWAP1 POP SWAP2 SWAP1 POP JUMP JUMPDEST PUSH32 0x4E487B7100000000000000000000000000000000000000000000000000000000 PUSH1 0x0 MSTORE PUSH1 0x41 PUSH1 0x4 MSTORE PUSH1 0x24 PUSH1 0x0 REVERT JUMPDEST PUSH3 0x448 DUP3 PUSH3 0x3FD JUMP JUMPDEST DUP2 ADD DUP2 DUP2 LT PUSH8 0xFFFFFFFFFFFFFFFF DUP3 GT OR ISZERO PUSH3 0x46A JUMPI PUSH3 0x469 PUSH3 0x40E JUMP JUMPDEST JUMPDEST DUP1 PUSH1 0x40 MSTORE POP POP POP JUMP JUMPDEST PUSH1 0x0 PUSH3 0x47F PUSH3 0x37A JUMP JUMPDEST SWAP1 POP PUSH3 0x48D DUP3 DUP3 PUSH3 0x43D JUMP JUMPDEST SWAP2 SWAP1 POP JUMP JUMPDEST PUSH1 0x0 PUSH8 0xFFFFFFFFFFFFFFFF DUP3 GT ISZERO PUSH3 0x4B0 JUMPI PUSH3 0x4AF PUSH3 0x40E JUMP JUMPDEST JUMPDEST PUSH3 0x4BB DUP3 PUSH3 0x3FD JUMP JUMPDEST SWAP1 POP PUSH1 0x20 DUP2 ADD SWAP1 POP SWAP2 SWAP1 POP JUMP JUMPDEST PUSH1 0x0 JUMPDEST DUP4 DUP2 LT ISZERO PUSH3 0x4E8 JUMPI DUP1 DUP3 ADD MLOAD DUP2 DUP5 ADD MSTORE PUSH1 0x20 DUP2 ADD SWAP1 POP PUSH3 0x4CB JUMP JUMPDEST PUSH1 0x0 DUP5 DUP5 ADD MSTORE POP POP POP POP JUMP JUMPDEST PUSH1 0x0 PUSH3 0x50B PUSH3 0x505 DUP5 PUSH3 0x492 JUMP JUMPDEST PUSH3 0x473 JUMP JUMPDEST SWAP1 POP DUP3 DUP2 MSTORE PUSH1 0x20 DUP2 ADD DUP5 DUP5 DUP5 ADD GT ISZERO PUSH3 0x52A JUMPI PUSH3 0x529 PUSH3 0x3F8 JUMP JUMPDEST JUMPDEST PUSH3 0x537 DUP5 DUP3 DUP6 PUSH3 0x4C8 JUMP JUMPDEST POP SWAP4 SWAP3 POP POP POP JUMP JUMPDEST PUSH1 0x0 DUP3 PUSH1 0x1F DUP4 ADD SLT PUSH3 0x557 JUMPI PUSH3 0x556 PUSH3 0x3F3 JUMP JUMPDEST JUMPDEST DUP2 MLOAD PUSH3 0x569 DUP5 DUP3 PUSH1 0x20 DUP7 ADD PUSH3 0x4F4 JUMP JUMPDEST SWAP2 POP POP SWAP3 SWAP2 POP POP JUMP JUMPDEST PUSH1 0x0 DUP1 PUSH1 0x40 DUP4 DUP6 SUB SLT ISZERO PUSH3 0x58C JUMPI PUSH3 0x58B PUSH3 0x384 JUMP JUMPDEST JUMPDEST PUSH1 0x0 PUSH3 0x59C DUP6 DUP3 DUP7 ADD PUSH3 0x3DC JUMP JUMPDEST SWAP3 POP POP PUSH1 0x20 DUP4 ADD MLOAD PUSH8 0xFFFFFFFFFFFFFFFF DUP2 GT ISZERO PUSH3 0x5C0 JUMPI PUSH3 0x5BF PUSH3 0x389 JUMP JUMPDEST JUMPDEST PUSH3 0x5CE DUP6 DUP3 DUP7 ADD PUSH3 0x53F JUMP JUMPDEST SWAP2 POP POP SWAP3 POP SWAP3 SWAP1 POP JUMP JUMPDEST PUSH1 0x0 DUP3 DUP3 MSTORE PUSH1 0x20 DUP3 ADD SWAP1 POP SWAP3 SWAP2 POP POP JUMP JUMPDEST PUSH32 0x455243313936373A206E657720696D706C656D656E746174696F6E206973206E PUSH1 0x0 DUP3 ADD MSTORE PUSH32 0x6F74206120636F6E747261637400000000000000000000000000000000000000 PUSH1 0x20 DUP3 ADD MSTORE POP JUMP JUMPDEST PUSH1 0x0 PUSH3 0x647 PUSH1 0x2D DUP4 PUSH3 0x5D8 JUMP JUMPDEST SWAP2 POP PUSH3 0x654 DUP3 PUSH3 0x5E9 JUMP JUMPDEST PUSH1 0x40 DUP3 ADD SWAP1 POP SWAP2 SWAP1 POP JUMP JUMPDEST PUSH1 0x0 PUSH1 0x20 DUP3 ADD SWAP1 POP DUP2 DUP2 SUB PUSH1 0x0 DUP4 ADD MSTORE PUSH3 0x67A DUP2 PUSH3 0x638 JUMP JUMPDEST SWAP1 POP SWAP2 SWAP1 POP JUMP JUMPDEST PUSH32 0x416464726573733A2064656C65676174652063616C6C20746F206E6F6E2D636F PUSH1 0x0 DUP3 ADD MSTORE PUSH32 0x6E74726163740000000000000000000000000000000000000000000000000000 PUSH1 0x20 DUP3 ADD MSTORE POP JUMP JUMPDEST PUSH1 0x0 PUSH3 0x6DF PUSH1 0x26 DUP4 PUSH3 0x5D8 JUMP JUMPDEST SWAP2 POP PUSH3 0x6EC DUP3 PUSH3 0x681 JUMP JUMPDEST PUSH1 0x40 DUP3 ADD SWAP1 POP SWAP2 SWAP1 POP JUMP JUMPDEST PUSH1 0x0 PUSH1 0x20 DUP3 ADD SWAP1 POP DUP2 DUP2 SUB PUSH1 0x0 DUP4 ADD MSTORE PUSH3 0x712 DUP2 PUSH3 0x6D0 JUMP JUMPDEST SWAP1 POP SWAP2 SWAP1 POP JUMP JUMPDEST PUSH1 0x0 DUP2 MLOAD SWAP1 POP SWAP2 SWAP1 POP JUMP JUMPDEST PUSH1 0x0 DUP2 SWAP1 POP SWAP3 SWAP2 POP POP JUMP JUMPDEST PUSH1 0x0 PUSH3 0x73C DUP3 PUSH3 0x719 JUMP JUMPDEST PUSH3 0x748 DUP2 DUP6 PUSH3 0x724 JUMP JUMPDEST SWAP4 POP PUSH3 0x75A DUP2 DUP6 PUSH1 0x20 DUP7 ADD PUSH3 0x4C8 JUMP JUMPDEST DUP1 DUP5 ADD SWAP2 POP POP SWAP3 SWAP2 POP POP JUMP JUMPDEST PUSH1 0x0 PUSH3 0x774 DUP3 DUP5 PUSH3 0x72F JUMP JUMPDEST SWAP2 POP DUP2 SWAP1 POP SWAP3 SWAP2 POP POP JUMP JUMPDEST PUSH1 0x0 DUP2 MLOAD SWAP1 POP SWAP2 SWAP1 POP JUMP JUMPDEST PUSH1 0x0 PUSH3 0x797 DUP3 PUSH3 0x77F JUMP JUMPDEST PUSH3 0x7A3 DUP2 DUP6 PUSH3 0x5D8 JUMP JUMPDEST SWAP4 POP PUSH3 0x7B5 DUP2 DUP6 PUSH1 0x20 DUP7 ADD PUSH3 0x4C8 JUMP JUMPDEST PUSH3 0x7C0 DUP2 PUSH3 0x3FD JUMP JUMPDEST DUP5 ADD SWAP2 POP POP SWAP3 SWAP2 POP POP JUMP JUMPDEST PUSH1 0x0 PUSH1 0x20 DUP3 ADD SWAP1 POP DUP2 DUP2 SUB PUSH1 0x0 DUP4 ADD MSTORE PUSH3 0x7E7 DUP2 DUP5 PUSH3 0x78A JUMP JUMPDEST SWAP1 POP SWAP3 SWAP2 POP POP JUMP JUMPDEST PUSH2 0x452 DUP1 PUSH3 0x7FF PUSH1 0x0 CODECOPY PUSH1 0x0 RETURN INVALID PUSH1 0x80 PUSH1 0x40 MSTORE CALLDATASIZE PUSH2 0x13 JUMPI PUSH2 0x11 PUSH2 0x1D JUMP JUMPDEST STOP JUMPDEST PUSH2 0x1B PUSH2 0x1D JUMP JUMPDEST STOP JUMPDEST PUSH2 0x25 PUSH2 0x91 JUMP JUMPDEST PUSH2 0x35 PUSH2 0x30 PUSH2 0x93 JUMP JUMPDEST PUSH2 0xA2 JUMP JUMPDEST JUMP JUMPDEST PUSH1 0x60 PUSH2 0x5C DUP4 DUP4 PUSH1 0x40 MLOAD DUP1 PUSH1 0x60 ADD PUSH1 0x40 MSTORE DUP1 PUSH1 0x27 DUP2 MSTORE PUSH1 0x20 ADD PUSH2 0x3F6 PUSH1 0x27 SWAP2 CODECOPY PUSH2 0xC8 JUMP JUMPDEST SWAP1 POP SWAP3 SWAP2 POP POP JUMP JUMPDEST PUSH1 0x0 DUP1 DUP3 PUSH20 0xFFFFFFFFFFFFFFFFFFFFFFFFFFFFFFFFFFFFFFFF AND EXTCODESIZE GT SWAP1 POP SWAP2 SWAP1 POP JUMP JUMPDEST PUSH1 0x0 DUP2 SWAP1 POP SWAP2 SWAP1 POP JUMP JUMPDEST JUMP JUMPDEST PUSH1 0x0 PUSH2 0x9D PUSH2 0x195 JUMP JUMPDEST SWAP1 POP SWAP1 JUMP JUMPDEST CALLDATASIZE PUSH1 0x0 DUP1 CALLDATACOPY PUSH1 0x0 DUP1 CALLDATASIZE PUSH1 0x0 DUP5 GAS DELEGATECALL RETURNDATASIZE PUSH1 0x0 DUP1 RETURNDATACOPY DUP1 PUSH1 0x0 DUP2 EQ PUSH2 0xC3 JUMPI RETURNDATASIZE PUSH1 0x0 RETURN JUMPDEST RETURNDATASIZE PUSH1 0x0 REVERT JUMPDEST PUSH1 0x60 PUSH2 0xD3 DUP5 PUSH2 0x64 JUMP JUMPDEST PUSH2 0x112 JUMPI PUSH1 0x40 MLOAD PUSH32 0x8C379A000000000000000000000000000000000000000000000000000000000 DUP2 MSTORE PUSH1 0x4 ADD PUSH2 0x109 SWAP1 PUSH2 0x2D6 JUMP JUMPDEST PUSH1 0x40 MLOAD DUP1 SWAP2 SUB SWAP1 REVERT JUMPDEST PUSH1 0x0 DUP1 DUP6 PUSH20 0xFFFFFFFFFFFFFFFFFFFFFFFFFFFFFFFFFFFFFFFF AND DUP6 PUSH1 0x40 MLOAD PUSH2 0x13A SWAP2 SWAP1 PUSH2 0x367 JUMP JUMPDEST PUSH1 0x0 PUSH1 0x40 MLOAD DUP1 DUP4 SUB DUP2 DUP6 GAS DELEGATECALL SWAP2 POP POP RETURNDATASIZE DUP1 PUSH1 0x0 DUP2 EQ PUSH2 0x175 JUMPI PUSH1 0x40 MLOAD SWAP2 POP PUSH1 0x1F NOT PUSH1 0x3F RETURNDATASIZE ADD AND DUP3 ADD PUSH1 0x40 MSTORE RETURNDATASIZE DUP3 MSTORE RETURNDATASIZE PUSH1 0x0 PUSH1 0x20 DUP5 ADD RETURNDATACOPY PUSH2 0x17A JUMP JUMPDEST PUSH1 0x60 SWAP2 POP JUMPDEST POP SWAP2 POP SWAP2 POP PUSH2 0x18A DUP3 DUP3 DUP7 PUSH2 0x1EC JUMP JUMPDEST SWAP3 POP POP POP SWAP4 SWAP3 POP POP POP JUMP JUMPDEST PUSH1 0x0 PUSH2 0x1C3 PUSH32 0x360894A13BA1A3210667C828492DB98DCA3E2076CC3735A920A3CA505D382BBC PUSH1 0x0 SHL PUSH2 0x87 JUMP JUMPDEST PUSH1 0x0 ADD PUSH1 0x0 SWAP1 SLOAD SWAP1 PUSH2 0x100 EXP SWAP1 DIV PUSH20 0xFFFFFFFFFFFFFFFFFFFFFFFFFFFFFFFFFFFFFFFF AND SWAP1 POP SWAP1 JUMP JUMPDEST PUSH1 0x60 DUP4 ISZERO PUSH2 0x1FC JUMPI DUP3 SWAP1 POP PUSH2 0x24C JUMP JUMPDEST PUSH1 0x0 DUP4 MLOAD GT ISZERO PUSH2 0x20F JUMPI DUP3 MLOAD DUP1 DUP5 PUSH1 0x20 ADD REVERT JUMPDEST DUP2 PUSH1 0x40 MLOAD PUSH32 0x8C379A000000000000000000000000000000000000000000000000000000000 DUP2 MSTORE PUSH1 0x4 ADD PUSH2 0x243 SWAP2 SWAP1 PUSH2 0x3D3 JUMP JUMPDEST PUSH1 0x40 MLOAD DUP1 SWAP2 SUB SWAP1 REVERT JUMPDEST SWAP4 SWAP3 POP POP POP JUMP JUMPDEST PUSH1 0x0 DUP3 DUP3 MSTORE PUSH1 0x20 DUP3 ADD SWAP1 POP SWAP3 SWAP2 POP POP JUMP JUMPDEST PUSH32 0x416464726573733A2064656C65676174652063616C6C20746F206E6F6E2D636F PUSH1 0x0 DUP3 ADD MSTORE PUSH32 0x6E74726163740000000000000000000000000000000000000000000000000000 PUSH1 0x20 DUP3 ADD MSTORE POP JUMP JUMPDEST PUSH1 0x0 PUSH2 0x2C0 PUSH1 0x26 DUP4 PUSH2 0x253 JUMP JUMPDEST SWAP2 POP PUSH2 0x2CB DUP3 PUSH2 0x264 JUMP JUMPDEST PUSH1 0x40 DUP3 ADD SWAP1 POP SWAP2 SWAP1 POP JUMP JUMPDEST PUSH1 0x0 PUSH1 0x20 DUP3 ADD SWAP1 POP DUP2 DUP2 SUB PUSH1 0x0 DUP4 ADD MSTORE PUSH2 0x2EF DUP2 PUSH2 0x2B3 JUMP JUMPDEST SWAP1 POP SWAP2 SWAP1 POP JUMP JUMPDEST PUSH1 0x0 DUP2 MLOAD SWAP1 POP SWAP2 SWAP1 POP JUMP JUMPDEST PUSH1 0x0 DUP2 SWAP1 POP SWAP3 SWAP2 POP POP JUMP JUMPDEST PUSH1 0x0 JUMPDEST DUP4 DUP2 LT ISZERO PUSH2 0x32A JUMPI DUP1 DUP3 ADD MLOAD DUP2 DUP5 ADD MSTORE PUSH1 0x20 DUP2 ADD SWAP1 POP PUSH2 0x30F JUMP JUMPDEST PUSH1 0x0 DUP5 DUP5 ADD MSTORE POP POP POP POP JUMP JUMPDEST PUSH1 0x0 PUSH2 0x341 DUP3 PUSH2 0x2F6 JUMP JUMPDEST PUSH2 0x34B DUP2 DUP6 PUSH2 0x301 JUMP JUMPDEST SWAP4 POP PUSH2 0x35B DUP2 DUP6 PUSH1 0x20 DUP7 ADD PUSH2 0x30C JUMP JUMPDEST DUP1 DUP5 ADD SWAP2 POP POP SWAP3 SWAP2 POP POP JUMP JUMPDEST PUSH1 0x0 PUSH2 0x373 DUP3 DUP5 PUSH2 0x336 JUMP JUMPDEST SWAP2 POP DUP2 SWAP1 POP SWAP3 SWAP2 POP POP JUMP JUMPDEST PUSH1 0x0 DUP2 MLOAD SWAP1 POP SWAP2 SWAP1 POP JUMP JUMPDEST PUSH1 0x0 PUSH1 0x1F NOT PUSH1 0x1F DUP4 ADD AND SWAP1 POP SWAP2 SWAP1 POP JUMP JUMPDEST PUSH1 0x0 PUSH2 0x3A5 DUP3 PUSH2 0x37E JUMP JUMPDEST PUSH2 0x3AF DUP2 DUP6 PUSH2 0x253 JUMP JUMPDEST SWAP4 POP PUSH2 0x3BF DUP2 DUP6 PUSH1 0x20 DUP7 ADD PUSH2 0x30C JUMP JUMPDEST PUSH2 0x3C8 DUP2 PUSH2 0x389 JUMP JUMPDEST DUP5 ADD SWAP2 POP POP SWAP3 SWAP2 POP POP JUMP JUMPDEST PUSH1 0x0 PUSH1 0x20 DUP3 ADD SWAP1 POP DUP2 DUP2 SUB PUSH1 0x0 DUP4 ADD MSTORE PUSH2 0x3ED DUP2 DUP5 PUSH2 0x39A JUMP JUMPDEST SWAP1 POP SWAP3 SWAP2 POP POP JUMP INVALID COINBASE PUSH5 0x6472657373 GASPRICE KECCAK256 PUSH13 0x6F772D6C6576656C2064656C65 PUSH8 0x6174652063616C6C KECCAK256 PUSH7 0x61696C6564A264 PUSH10 0x70667358221220AC0A42 0x22 PUSH5 0x35895D298C 0xD 0x1E DUP5 0x29 0xD4 0xF9 GASPRICE 0xE MLOAD 0x4E LT LT 0xC6 CALL SWAP11 0xC2 0xC1 DIFFICULTY DIV 0xD2 CALLDATACOPY SWAP7 PUSH5 0x736F6C6343 STOP ADDMOD GT STOP CALLER COINBASE PUSH5 0x6472657373 GASPRICE KECCAK256 PUSH13 0x6F772D6C6576656C2064656C65 PUSH8 0x6174652063616C6C KECCAK256 PUSH7 0x61696C6564A264 PUSH10 0x70667358221220F401A9 0x25 0xC0 0xB6 DUP14 ISZERO JUMPDEST SWAP11 CODECOPY CALLDATASIZE LOG1 0xC7 0xE1 0xF 0xC0 0x29 SWAP7 DUP12 0xFC MLOAD 0x1F 0xD5 0xA5 ORIGIN PUSH5 0x1B7FFDDB07 PUSH5 0x736F6C6343 STOP ADDMOD GT STOP CALLER "},"methodIdentifiers":{"claimOwnership()":"4e71e0c8","createPool(address,address,address,uint256)":"93c907b4","getPool(address,address,uint256)":"acf6cc1a","owner()":"8da5cb5b","pendingOwner()":"e30c3978","transferOwnership(address,bool)":"b242e534"}}}}}