{
  "_format": "hh-sol-artifact-1",
  "contractName": "DexPool",
  "sourceName": "contracts/DexPool.sol",
  "abi": [
    {
      "inputs": [],
      "name": "InvalidAddress",
      "type": "error"
    },
    {
      "inputs": [
        {
          "internalType": "address",
          "name": "token",
          "type": "address"
        },
        {
          "internalType": "uint256",
          "name": "amount",
          "type": "uint256"
        }
      ],
      "name": "InvalidAmount",
      "type": "error"
    },
    {
      "inputs": [
        {
          "internalType": "string",
          "name": "reason",
          "type": "string"
        }
      ],
      "name": "InvalidCaller",
      "type": "error"
    },
    {
      "inputs": [],
      "name": "InvalidFactory",
      "type": "error"
    },
    {
      "inputs": [],
      "name": "InvalidFee",
      "type": "error"
    },
    {
      "inputs": [
        {
          "internalType": "uint256",
          "name": "amount0",
          "type": "uint256"
        },
        {
          "internalType": "uint256",
          "name": "amount1",
          "type": "uint256"
        }
      ],
      "name": "InvalidLiquidityAllocation",
      "type": "error"
    },
    {
      "inputs": [],
      "name": "InvalidShare",
      "type": "error"
    },
    {
      "inputs": [],
      "name": "InvalidToken",
      "type": "error"
    },
    {
      "inputs": [],
      "name": "InvalidTokens",
      "type": "error"
    },
    {
      "anonymous": false,
      "inputs": [
        {
          "indexed": false,
          "internalType": "address",
          "name": "previousAdmin",
          "type": "address"
        },
        {
          "indexed": false,
          "internalType": "address",
          "name": "newAdmin",
          "type": "address"
        }
      ],
      "name": "AdminChanged",
      "type": "event"
    },
    {
      "anonymous": false,
      "inputs": [
        {
          "indexed": true,
          "internalType": "address",
          "name": "beacon",
          "type": "address"
        }
      ],
      "name": "BeaconUpgraded",
      "type": "event"
    },
    {
      "anonymous": false,
      "inputs": [
        {
          "indexed": false,
          "internalType": "uint8",
          "name": "version",
          "type": "uint8"
        }
      ],
      "name": "Initialized",
      "type": "event"
    },
    {
      "anonymous": false,
      "inputs": [
        {
          "indexed": true,
          "internalType": "address",
          "name": "lp",
          "type": "address"
        },
        {
          "indexed": false,
          "internalType": "uint256",
          "name": "amount0",
          "type": "uint256"
        },
        {
          "indexed": false,
          "internalType": "uint256",
          "name": "amount1",
          "type": "uint256"
        },
        {
          "indexed": false,
          "internalType": "uint256",
          "name": "share",
          "type": "uint256"
        }
      ],
      "name": "LiquidityAdded",
      "type": "event"
    },
    {
      "anonymous": false,
      "inputs": [
        {
          "indexed": true,
          "internalType": "address",
          "name": "lp",
          "type": "address"
        },
        {
          "indexed": false,
          "internalType": "uint256",
          "name": "amount0",
          "type": "uint256"
        },
        {
          "indexed": false,
          "internalType": "uint256",
          "name": "amount1",
          "type": "uint256"
        },
        {
          "indexed": false,
          "internalType": "uint256",
          "name": "share",
          "type": "uint256"
        }
      ],
      "name": "LiquidityRemoved",
      "type": "event"
    },
    {
      "anonymous": false,
      "inputs": [
        {
          "indexed": true,
          "internalType": "address",
          "name": "oldOwner",
          "type": "address"
        },
        {
          "indexed": false,
          "internalType": "address",
          "name": "newOwner",
          "type": "address"
        }
      ],
      "name": "OwnershipTransferred",
      "type": "event"
    },
    {
      "anonymous": false,
      "inputs": [
        {
          "indexed": true,
          "internalType": "address",
          "name": "implementation",
          "type": "address"
        }
      ],
      "name": "Upgraded",
      "type": "event"
    },
    {
      "inputs": [
        {
          "internalType": "uint256",
          "name": "amount0",
          "type": "uint256"
        },
        {
          "internalType": "uint256",
          "name": "amount1",
          "type": "uint256"
        }
      ],
      "name": "addLiquidity",
      "outputs": [
        {
          "internalType": "uint256",
          "name": "share",
          "type": "uint256"
        }
      ],
      "stateMutability": "nonpayable",
      "type": "function"
    },
    {
      "inputs": [],
      "name": "balance0",
      "outputs": [
        {
          "internalType": "uint256",
          "name": "",
          "type": "uint256"
        }
      ],
      "stateMutability": "view",
      "type": "function"
    },
    {
      "inputs": [],
      "name": "balance1",
      "outputs": [
        {
          "internalType": "uint256",
          "name": "",
          "type": "uint256"
        }
      ],
      "stateMutability": "view",
      "type": "function"
    },
    {
      "inputs": [
        {
          "internalType": "address",
          "name": "",
          "type": "address"
        }
      ],
      "name": "balanceOf",
      "outputs": [
        {
          "internalType": "uint256",
          "name": "",
          "type": "uint256"
        }
      ],
      "stateMutability": "view",
      "type": "function"
    },
    {
      "inputs": [],
      "name": "claimOwnership",
      "outputs": [],
      "stateMutability": "nonpayable",
      "type": "function"
    },
    {
      "inputs": [],
      "name": "factory",
      "outputs": [
        {
          "internalType": "contract IDexPoolFactory",
          "name": "",
          "type": "address"
        }
      ],
      "stateMutability": "view",
      "type": "function"
    },
    {
      "inputs": [],
      "name": "fee",
      "outputs": [
        {
          "internalType": "uint256",
          "name": "",
          "type": "uint256"
        }
      ],
      "stateMutability": "view",
      "type": "function"
    },
    {
      "inputs": [
        {
          "internalType": "address",
          "name": "_owner",
          "type": "address"
        },
        {
          "internalType": "address",
          "name": "tokenA",
          "type": "address"
        },
        {
          "internalType": "address",
          "name": "tokenB",
          "type": "address"
        },
        {
          "internalType": "uint256",
          "name": "_fee",
          "type": "uint256"
        }
      ],
      "name": "initialize",
      "outputs": [],
      "stateMutability": "nonpayable",
      "type": "function"
    },
    {
      "inputs": [],
      "name": "owner",
      "outputs": [
        {
          "internalType": "address",
          "name": "",
          "type": "address"
        }
      ],
      "stateMutability": "view",
      "type": "function"
    },
    {
      "inputs": [],
      "name": "pendingOwner",
      "outputs": [
        {
          "internalType": "address",
          "name": "",
          "type": "address"
        }
      ],
      "stateMutability": "view",
      "type": "function"
    },
    {
      "inputs": [],
      "name": "proxiableUUID",
      "outputs": [
        {
          "internalType": "bytes32",
          "name": "",
          "type": "bytes32"
        }
      ],
      "stateMutability": "view",
      "type": "function"
    },
    {
      "inputs": [
        {
          "internalType": "uint256",
          "name": "share",
          "type": "uint256"
        }
      ],
      "name": "removeLiquidity",
      "outputs": [
        {
          "internalType": "uint256",
          "name": "amount0",
          "type": "uint256"
        },
        {
          "internalType": "uint256",
          "name": "amount1",
          "type": "uint256"
        }
      ],
      "stateMutability": "nonpayable",
      "type": "function"
    },
    {
      "inputs": [
        {
          "internalType": "address",
          "name": "_tokenIn",
          "type": "address"
        },
        {
          "internalType": "uint256",
          "name": "amountIn",
          "type": "uint256"
        }
      ],
      "name": "swap",
      "outputs": [
        {
          "internalType": "uint256",
          "name": "amountOut",
          "type": "uint256"
        }
      ],
      "stateMutability": "nonpayable",
      "type": "function"
    },
    {
      "inputs": [],
      "name": "token0",
      "outputs": [
        {
          "internalType": "contract IERC20",
          "name": "",
          "type": "address"
        }
      ],
      "stateMutability": "view",
      "type": "function"
    },
    {
      "inputs": [],
      "name": "token1",
      "outputs": [
        {
          "internalType": "contract IERC20",
          "name": "",
          "type": "address"
        }
      ],
      "stateMutability": "view",
      "type": "function"
    },
    {
      "inputs": [],
      "name": "totalShares",
      "outputs": [
        {
          "internalType": "uint256",
          "name": "",
          "type": "uint256"
        }
      ],
      "stateMutability": "view",
      "type": "function"
    },
    {
      "inputs": [
        {
          "internalType": "address",
          "name": "newOwner",
          "type": "address"
        },
        {
          "internalType": "bool",
          "name": "direct",
          "type": "bool"
        }
      ],
      "name": "transferOwnership",
      "outputs": [],
      "stateMutability": "nonpayable",
      "type": "function"
    },
    {
      "inputs": [
        {
          "internalType": "address",
          "name": "newImplementation",
          "type": "address"
        }
      ],
      "name": "upgradeTo",
      "outputs": [],
      "stateMutability": "nonpayable",
      "type": "function"
    },
    {
      "inputs": [
        {
          "internalType": "address",
          "name": "newImplementation",
          "type": "address"
        },
        {
          "internalType": "bytes",
          "name": "data",
          "type": "bytes"
        }
      ],
      "name": "upgradeToAndCall",
      "outputs": [],
      "stateMutability": "payable",
      "type": "function"
    }
  ],
  "bytecode": "0x60a06040523073ffffffffffffffffffffffffffffffffffffffff1660809073ffffffffffffffffffffffffffffffffffffffff1681525034801561004357600080fd5b50608051613b1661007b6000396000818161049801528181610526015281816107cd0152818161085b015261090b0152613b166000f3fe6080604052600436106101145760003560e01c80639c8f9f23116100a0578063cf756fdf11610064578063cf756fdf14610383578063d004f0f7146103ac578063d21220a7146103e9578063ddca3f4314610414578063e30c39781461043f57610114565b80639c8f9f23146102895780639cd441da146102c7578063b242e53414610304578063c45a01551461032d578063c45c4f581461035857610114565b80634e71e0c8116100e75780634e71e0c8146101c35780634f1ef286146101da57806352d1902d146101f657806370a08231146102215780638da5cb5b1461025e57610114565b80630dfe1681146101195780631c69ad00146101445780633659cfe61461016f5780633a98ef3914610198575b600080fd5b34801561012557600080fd5b5061012e61046a565b60405161013b9190612a19565b60405180910390f35b34801561015057600080fd5b50610159610490565b6040516101669190612a4d565b60405180910390f35b34801561017b57600080fd5b5061019660048036038101906101919190612aba565b610496565b005b3480156101a457600080fd5b506101ad61061e565b6040516101ba9190612a4d565b60405180910390f35b3480156101cf57600080fd5b506101d8610624565b005b6101f460048036038101906101ef9190612c2d565b6107cb565b005b34801561020257600080fd5b5061020b610907565b6040516102189190612ca2565b60405180910390f35b34801561022d57600080fd5b5061024860048036038101906102439190612aba565b6109c0565b6040516102559190612a4d565b60405180910390f35b34801561026a57600080fd5b506102736109d8565b6040516102809190612ccc565b60405180910390f35b34801561029557600080fd5b506102b060048036038101906102ab9190612d13565b6109fe565b6040516102be929190612d40565b60405180910390f35b3480156102d357600080fd5b506102ee60048036038101906102e99190612d69565b610db5565b6040516102fb9190612a4d565b60405180910390f35b34801561031057600080fd5b5061032b60048036038101906103269190612de1565b6110ac565b005b34801561033957600080fd5b50610342611256565b60405161034f9190612e42565b60405180910390f35b34801561036457600080fd5b5061036d61127c565b60405161037a9190612a4d565b60405180910390f35b34801561038f57600080fd5b506103aa60048036038101906103a59190612e5d565b611282565b005b3480156103b857600080fd5b506103d360048036038101906103ce9190612ec4565b61186b565b6040516103e09190612a4d565b60405180910390f35b3480156103f557600080fd5b506103fe611f24565b60405161040b9190612a19565b60405180910390f35b34801561042057600080fd5b50610429611f4a565b6040516104369190612a4d565b60405180910390f35b34801561044b57600080fd5b50610454611f50565b6040516104619190612ccc565b60405180910390f35b600160009054906101000a900473ffffffffffffffffffffffffffffffffffffffff1681565b60035481565b7f000000000000000000000000000000000000000000000000000000000000000073ffffffffffffffffffffffffffffffffffffffff163073ffffffffffffffffffffffffffffffffffffffff1603610524576040517f08c379a000000000000000000000000000000000000000000000000000000000815260040161051b90612f87565b60405180910390fd5b7f000000000000000000000000000000000000000000000000000000000000000073ffffffffffffffffffffffffffffffffffffffff16610563611f76565b73ffffffffffffffffffffffffffffffffffffffff16146105b9576040517f08c379a00000000000000000000000000000000000000000000000000000000081526004016105b090613019565b60405180910390fd5b6105c281611fcd565b61061b81600067ffffffffffffffff8111156105e1576105e0612b02565b5b6040519080825280601f01601f1916602001820160405280156106135781602001600182028036833780820191505090505b506000612060565b50565b60085481565b600760009054906101000a900473ffffffffffffffffffffffffffffffffffffffff1673ffffffffffffffffffffffffffffffffffffffff163373ffffffffffffffffffffffffffffffffffffffff16146106b4576040517f7c0232c30000000000000000000000000000000000000000000000000000000081526004016106ab90613085565b60405180910390fd5b600660009054906101000a900473ffffffffffffffffffffffffffffffffffffffff1673ffffffffffffffffffffffffffffffffffffffff167f8be0079c531659141344cd1fd0a4f28419497f9722a3daafe3b4186f6b6457e0600760009054906101000a900473ffffffffffffffffffffffffffffffffffffffff1660405161073e9190612ccc565b60405180910390a233600660006101000a81548173ffffffffffffffffffffffffffffffffffffffff021916908373ffffffffffffffffffffffffffffffffffffffff1602179055506000600760006101000a81548173ffffffffffffffffffffffffffffffffffffffff021916908373ffffffffffffffffffffffffffffffffffffffff160217905550565b7f000000000000000000000000000000000000000000000000000000000000000073ffffffffffffffffffffffffffffffffffffffff163073ffffffffffffffffffffffffffffffffffffffff1603610859576040517f08c379a000000000000000000000000000000000000000000000000000000000815260040161085090612f87565b60405180910390fd5b7f000000000000000000000000000000000000000000000000000000000000000073ffffffffffffffffffffffffffffffffffffffff16610898611f76565b73ffffffffffffffffffffffffffffffffffffffff16146108ee576040517f08c379a00000000000000000000000000000000000000000000000000000000081526004016108e590613019565b60405180910390fd5b6108f782611fcd565b61090382826001612060565b5050565b60007f000000000000000000000000000000000000000000000000000000000000000073ffffffffffffffffffffffffffffffffffffffff163073ffffffffffffffffffffffffffffffffffffffff1614610997576040517f08c379a000000000000000000000000000000000000000000000000000000000815260040161098e90613117565b60405180910390fd5b7f360894a13ba1a3210667c828492db98dca3e2076cc3735a920a3ca505d382bbc60001b905090565b60096020528060005260406000206000915090505481565b600660009054906101000a900473ffffffffffffffffffffffffffffffffffffffff1681565b6000806000831480610a4e575082600960003373ffffffffffffffffffffffffffffffffffffffff1673ffffffffffffffffffffffffffffffffffffffff16815260200190815260200160002054105b15610a85576040517f100d5f7400000000000000000000000000000000000000000000000000000000815260040160405180910390fd5b60085460035484610a969190613166565b610aa091906131d7565b915060085460045484610ab39190613166565b610abd91906131d7565b9050600082118015610acf5750600081115b610adc57610adb613208565b5b610ae633846121ce565b610b333083600160009054906101000a900473ffffffffffffffffffffffffffffffffffffffff1673ffffffffffffffffffffffffffffffffffffffff166122419092919063ffffffff16565b610b803082600260009054906101000a900473ffffffffffffffffffffffffffffffffffffffff1673ffffffffffffffffffffffffffffffffffffffff166122419092919063ffffffff16565b610bcf303384600160009054906101000a900473ffffffffffffffffffffffffffffffffffffffff1673ffffffffffffffffffffffffffffffffffffffff16612353909392919063ffffffff16565b610c1e303383600260009054906101000a900473ffffffffffffffffffffffffffffffffffffffff1673ffffffffffffffffffffffffffffffffffffffff16612353909392919063ffffffff16565b610d5e600160009054906101000a900473ffffffffffffffffffffffffffffffffffffffff1673ffffffffffffffffffffffffffffffffffffffff166370a08231306040518263ffffffff1660e01b8152600401610c7c9190612ccc565b602060405180830381865afa158015610c99573d6000803e3d6000fd5b505050506040513d601f19601f82011682018060405250810190610cbd919061324c565b600260009054906101000a900473ffffffffffffffffffffffffffffffffffffffff1673ffffffffffffffffffffffffffffffffffffffff166370a08231306040518263ffffffff1660e01b8152600401610d189190612ccc565b602060405180830381865afa158015610d35573d6000803e3d6000fd5b505050506040513d601f19601f82011682018060405250810190610d59919061324c565b6123dc565b3373ffffffffffffffffffffffffffffffffffffffff167f1dc8bb69df2b8e91fbdcbfcf93d951b3f0000f085a95fe3f7946d6161439245d838386604051610da893929190613279565b60405180910390a2915091565b6000610e06333085600160009054906101000a900473ffffffffffffffffffffffffffffffffffffffff1673ffffffffffffffffffffffffffffffffffffffff16612353909392919063ffffffff16565b610e55333084600260009054906101000a900473ffffffffffffffffffffffffffffffffffffffff1673ffffffffffffffffffffffffffffffffffffffff16612353909392919063ffffffff16565b60006008541115610ee25782600454610e6e9190613166565b82600354610e7c9190613166565b14610ec05782826040517f0f993c58000000000000000000000000000000000000000000000000000000008152600401610eb7929190612d40565b60405180910390fd5b60035460085484610ed19190613166565b610edb91906131d7565b9050610ef9565b610ef68284610ef19190613166565b6123ee565b90505b60008111610f0a57610f09613208565b5b610f143382612468565b611054600160009054906101000a900473ffffffffffffffffffffffffffffffffffffffff1673ffffffffffffffffffffffffffffffffffffffff166370a08231306040518263ffffffff1660e01b8152600401610f729190612ccc565b602060405180830381865afa158015610f8f573d6000803e3d6000fd5b505050506040513d601f19601f82011682018060405250810190610fb3919061324c565b600260009054906101000a900473ffffffffffffffffffffffffffffffffffffffff1673ffffffffffffffffffffffffffffffffffffffff166370a08231306040518263ffffffff1660e01b815260040161100e9190612ccc565b602060405180830381865afa15801561102b573d6000803e3d6000fd5b505050506040513d601f19601f8201168201806040525081019061104f919061324c565b6123dc565b3373ffffffffffffffffffffffffffffffffffffffff167f64b83944e79c3ce8d4c297411de637c3e102d064677aac0c163976ebdcd6f50e84848460405161109e93929190613279565b60405180910390a292915050565b801561121057600073ffffffffffffffffffffffffffffffffffffffff168273ffffffffffffffffffffffffffffffffffffffff1603611118576040517fe6c4247b00000000000000000000000000000000000000000000000000000000815260040160405180910390fd5b600660009054906101000a900473ffffffffffffffffffffffffffffffffffffffff1673ffffffffffffffffffffffffffffffffffffffff167f8be0079c531659141344cd1fd0a4f28419497f9722a3daafe3b4186f6b6457e0836040516111809190612ccc565b60405180910390a281600660006101000a81548173ffffffffffffffffffffffffffffffffffffffff021916908373ffffffffffffffffffffffffffffffffffffffff1602179055506000600760006101000a81548173ffffffffffffffffffffffffffffffffffffffff021916908373ffffffffffffffffffffffffffffffffffffffff160217905550611252565b81600760006101000a81548173ffffffffffffffffffffffffffffffffffffffff021916908373ffffffffffffffffffffffffffffffffffffffff1602179055505b5050565b600060029054906101000a900473ffffffffffffffffffffffffffffffffffffffff1681565b60045481565b60008060019054906101000a900460ff161590508080156112b35750600160008054906101000a900460ff1660ff16105b806112e057506112c2306124db565b1580156112df5750600160008054906101000a900460ff1660ff16145b5b61131f576040517f08c379a000000000000000000000000000000000000000000000000000000000815260040161131690613322565b60405180910390fd5b60016000806101000a81548160ff021916908360ff160217905550801561135c576001600060016101000a81548160ff0219169083151502179055505b6000808473ffffffffffffffffffffffffffffffffffffffff168673ffffffffffffffffffffffffffffffffffffffff161061139957848661139c565b85855b91509150600073ffffffffffffffffffffffffffffffffffffffff168773ffffffffffffffffffffffffffffffffffffffff1603611406576040517fe6c4247b00000000000000000000000000000000000000000000000000000000815260040160405180910390fd5b3373ffffffffffffffffffffffffffffffffffffffff166301ffc9a77fada53c71000000000000000000000000000000000000000000000000000000006040518263ffffffff1660e01b815260040161145f919061337d565b602060405180830381865afa15801561147c573d6000803e3d6000fd5b505050506040513d601f19601f820116820180604052508101906114a091906133ad565b6114d6576040517f7a44db9500000000000000000000000000000000000000000000000000000000815260040160405180910390fd5b8073ffffffffffffffffffffffffffffffffffffffff168273ffffffffffffffffffffffffffffffffffffffff16148061153c5750600073ffffffffffffffffffffffffffffffffffffffff168273ffffffffffffffffffffffffffffffffffffffff16145b806115de57508573ffffffffffffffffffffffffffffffffffffffff166301ffc9a77f36372b07000000000000000000000000000000000000000000000000000000006040518263ffffffff1660e01b815260040161159b919061337d565b602060405180830381865afa1580156115b8573d6000803e3d6000fd5b505050506040513d601f19601f820116820180604052508101906115dc91906133ad565b155b8061168057508473ffffffffffffffffffffffffffffffffffffffff166301ffc9a77f36372b07000000000000000000000000000000000000000000000000000000006040518263ffffffff1660e01b815260040161163d919061337d565b602060405180830381865afa15801561165a573d6000803e3d6000fd5b505050506040513d601f19601f8201168201806040525081019061167e91906133ad565b155b156116b7576040517f672215de00000000000000000000000000000000000000000000000000000000815260040160405180910390fd5b60008414806116c7575061271084115b156116fe576040517f58d620b300000000000000000000000000000000000000000000000000000000815260040160405180910390fd5b33600060026101000a81548173ffffffffffffffffffffffffffffffffffffffff021916908373ffffffffffffffffffffffffffffffffffffffff16021790555086600660006101000a81548173ffffffffffffffffffffffffffffffffffffffff021916908373ffffffffffffffffffffffffffffffffffffffff16021790555081600160006101000a81548173ffffffffffffffffffffffffffffffffffffffff021916908373ffffffffffffffffffffffffffffffffffffffff16021790555080600260006101000a81548173ffffffffffffffffffffffffffffffffffffffff021916908373ffffffffffffffffffffffffffffffffffffffff16021790555083600581905550505080156118645760008060016101000a81548160ff0219169083151502179055507f7f26b83ff96e1f2b6a682f133852f6798a09c465da95921460cefb3847402498600160405161185b9190613422565b60405180910390a15b5050505050565b6000600160009054906101000a900473ffffffffffffffffffffffffffffffffffffffff1673ffffffffffffffffffffffffffffffffffffffff168373ffffffffffffffffffffffffffffffffffffffff16141580156119195750600260009054906101000a900473ffffffffffffffffffffffffffffffffffffffff1673ffffffffffffffffffffffffffffffffffffffff168373ffffffffffffffffffffffffffffffffffffffff1614155b15611950576040517fc1ab6dc100000000000000000000000000000000000000000000000000000000815260040160405180910390fd5b600082036119975782826040517fb2b3b53b00000000000000000000000000000000000000000000000000000000815260040161198e92919061343d565b60405180910390fd5b6000600160009054906101000a900473ffffffffffffffffffffffffffffffffffffffff1673ffffffffffffffffffffffffffffffffffffffff168473ffffffffffffffffffffffffffffffffffffffff1614905060008060008084611b7a57600260009054906101000a900473ffffffffffffffffffffffffffffffffffffffff16600160009054906101000a900473ffffffffffffffffffffffffffffffffffffffff16600260009054906101000a900473ffffffffffffffffffffffffffffffffffffffff1673ffffffffffffffffffffffffffffffffffffffff166370a08231306040518263ffffffff1660e01b8152600401611a989190612ccc565b602060405180830381865afa158015611ab5573d6000803e3d6000fd5b505050506040513d601f19601f82011682018060405250810190611ad9919061324c565b600160009054906101000a900473ffffffffffffffffffffffffffffffffffffffff1673ffffffffffffffffffffffffffffffffffffffff166370a08231306040518263ffffffff1660e01b8152600401611b349190612ccc565b602060405180830381865afa158015611b51573d6000803e3d6000fd5b505050506040513d601f19601f82011682018060405250810190611b75919061324c565b611cf9565b600160009054906101000a900473ffffffffffffffffffffffffffffffffffffffff16600260009054906101000a900473ffffffffffffffffffffffffffffffffffffffff16600160009054906101000a900473ffffffffffffffffffffffffffffffffffffffff1673ffffffffffffffffffffffffffffffffffffffff166370a08231306040518263ffffffff1660e01b8152600401611c1b9190612ccc565b602060405180830381865afa158015611c38573d6000803e3d6000fd5b505050506040513d601f19601f82011682018060405250810190611c5c919061324c565b600260009054906101000a900473ffffffffffffffffffffffffffffffffffffffff1673ffffffffffffffffffffffffffffffffffffffff166370a08231306040518263ffffffff1660e01b8152600401611cb79190612ccc565b602060405180830381865afa158015611cd4573d6000803e3d6000fd5b505050506040513d601f19601f82011682018060405250810190611cf8919061324c565b5b9350935093509350611d2e3330898773ffffffffffffffffffffffffffffffffffffffff16612353909392919063ffffffff16565b6000620f4240600554620f4240611d459190613466565b89611d509190613166565b611d5a91906131d7565b90508083611d68919061349a565b8183611d749190613166565b611d7e91906131d7565b9650611dab30888673ffffffffffffffffffffffffffffffffffffffff166122419092919063ffffffff16565b611dd83033898773ffffffffffffffffffffffffffffffffffffffff16612353909392919063ffffffff16565b611f18600160009054906101000a900473ffffffffffffffffffffffffffffffffffffffff1673ffffffffffffffffffffffffffffffffffffffff166370a08231306040518263ffffffff1660e01b8152600401611e369190612ccc565b602060405180830381865afa158015611e53573d6000803e3d6000fd5b505050506040513d601f19601f82011682018060405250810190611e77919061324c565b600260009054906101000a900473ffffffffffffffffffffffffffffffffffffffff1673ffffffffffffffffffffffffffffffffffffffff166370a08231306040518263ffffffff1660e01b8152600401611ed29190612ccc565b602060405180830381865afa158015611eef573d6000803e3d6000fd5b505050506040513d601f19601f82011682018060405250810190611f13919061324c565b6123dc565b50505050505092915050565b600260009054906101000a900473ffffffffffffffffffffffffffffffffffffffff1681565b60055481565b600760009054906101000a900473ffffffffffffffffffffffffffffffffffffffff1681565b6000611fa47f360894a13ba1a3210667c828492db98dca3e2076cc3735a920a3ca505d382bbc60001b6124fe565b60000160009054906101000a900473ffffffffffffffffffffffffffffffffffffffff16905090565b600660009054906101000a900473ffffffffffffffffffffffffffffffffffffffff1673ffffffffffffffffffffffffffffffffffffffff163373ffffffffffffffffffffffffffffffffffffffff161461205d576040517f7c0232c30000000000000000000000000000000000000000000000000000000081526004016120549061351a565b60405180910390fd5b50565b61208c7f4910fdfa16fed3260ed0e7147f7cc6da11a60208b5b9406d12a635614ffd914360001b612508565b60000160009054906101000a900460ff16156120b0576120ab83612512565b6121c9565b8273ffffffffffffffffffffffffffffffffffffffff166352d1902d6040518163ffffffff1660e01b8152600401602060405180830381865afa92505050801561211857506040513d601f19601f820116820180604052508101906121159190613566565b60015b612157576040517f08c379a000000000000000000000000000000000000000000000000000000000815260040161214e90613605565b60405180910390fd5b7f360894a13ba1a3210667c828492db98dca3e2076cc3735a920a3ca505d382bbc60001b81146121bc576040517f08c379a00000000000000000000000000000000000000000000000000000000081526004016121b390613697565b60405180910390fd5b506121c88383836125cb565b5b505050565b80600960008473ffffffffffffffffffffffffffffffffffffffff1673ffffffffffffffffffffffffffffffffffffffff168152602001908152602001600020600082825461221d9190613466565b9250508190555080600860008282546122369190613466565b925050819055505050565b6000818473ffffffffffffffffffffffffffffffffffffffff1663dd62ed3e30866040518363ffffffff1660e01b815260040161227f9291906136b7565b602060405180830381865afa15801561229c573d6000803e3d6000fd5b505050506040513d601f19601f820116820180604052508101906122c0919061324c565b6122ca919061349a565b905061234d8463095ea7b360e01b85846040516024016122eb92919061343d565b604051602081830303815290604052907bffffffffffffffffffffffffffffffffffffffffffffffffffffffff19166020820180517bffffffffffffffffffffffffffffffffffffffffffffffffffffffff83818316178352505050506125f7565b50505050565b6123d6846323b872dd60e01b858585604051602401612374939291906136e0565b604051602081830303815290604052907bffffffffffffffffffffffffffffffffffffffffffffffffffffffff19166020820180517bffffffffffffffffffffffffffffffffffffffffffffffffffffffff83818316178352505050506125f7565b50505050565b81600381905550806004819055505050565b60006003821115612455578190506000600160028461240d91906131d7565b612417919061349a565b90505b8181101561244f57809150600281828561243491906131d7565b61243e919061349a565b61244891906131d7565b905061241a565b50612463565b6000821461246257600190505b5b919050565b80600960008473ffffffffffffffffffffffffffffffffffffffff1673ffffffffffffffffffffffffffffffffffffffff16815260200190815260200160002060008282546124b7919061349a565b9250508190555080600860008282546124d0919061349a565b925050819055505050565b6000808273ffffffffffffffffffffffffffffffffffffffff163b119050919050565b6000819050919050565b6000819050919050565b61251b816124db565b61255a576040517f08c379a000000000000000000000000000000000000000000000000000000000815260040161255190613789565b60405180910390fd5b806125877f360894a13ba1a3210667c828492db98dca3e2076cc3735a920a3ca505d382bbc60001b6124fe565b60000160006101000a81548173ffffffffffffffffffffffffffffffffffffffff021916908373ffffffffffffffffffffffffffffffffffffffff16021790555050565b6125d4836126be565b6000825111806125e15750805b156125f2576125f0838361270d565b505b505050565b6000612659826040518060400160405280602081526020017f5361666545524332303a206c6f772d6c6576656c2063616c6c206661696c65648152508573ffffffffffffffffffffffffffffffffffffffff1661273a9092919063ffffffff16565b90506000815111156126b9578080602001905181019061267991906133ad565b6126b8576040517f08c379a00000000000000000000000000000000000000000000000000000000081526004016126af9061381b565b60405180910390fd5b5b505050565b6126c781612512565b8073ffffffffffffffffffffffffffffffffffffffff167fbc7cd75a20ee27fd9adebab32041f755214dbc6bffa90cc0225b39da2e5c2d3b60405160405180910390a250565b60606127328383604051806060016040528060278152602001613aba60279139612752565b905092915050565b6060612749848460008561281f565b90509392505050565b606061275d846124db565b61279c576040517f08c379a0000000000000000000000000000000000000000000000000000000008152600401612793906138ad565b60405180910390fd5b6000808573ffffffffffffffffffffffffffffffffffffffff16856040516127c4919061393e565b600060405180830381855af49150503d80600081146127ff576040519150601f19603f3d011682016040523d82523d6000602084013e612804565b606091505b5091509150612814828286612933565b925050509392505050565b606082471015612864576040517f08c379a000000000000000000000000000000000000000000000000000000000815260040161285b906139c7565b60405180910390fd5b61286d856124db565b6128ac576040517f08c379a00000000000000000000000000000000000000000000000000000000081526004016128a390613a33565b60405180910390fd5b6000808673ffffffffffffffffffffffffffffffffffffffff1685876040516128d5919061393e565b60006040518083038185875af1925050503d8060008114612912576040519150601f19603f3d011682016040523d82523d6000602084013e612917565b606091505b5091509150612927828286612933565b92505050949350505050565b6060831561294357829050612993565b6000835111156129565782518084602001fd5b816040517f08c379a000000000000000000000000000000000000000000000000000000000815260040161298a9190613a97565b60405180910390fd5b9392505050565b600073ffffffffffffffffffffffffffffffffffffffff82169050919050565b6000819050919050565b60006129df6129da6129d58461299a565b6129ba565b61299a565b9050919050565b60006129f1826129c4565b9050919050565b6000612a03826129e6565b9050919050565b612a13816129f8565b82525050565b6000602082019050612a2e6000830184612a0a565b92915050565b6000819050919050565b612a4781612a34565b82525050565b6000602082019050612a626000830184612a3e565b92915050565b6000604051905090565b600080fd5b600080fd5b6000612a878261299a565b9050919050565b612a9781612a7c565b8114612aa257600080fd5b50565b600081359050612ab481612a8e565b92915050565b600060208284031215612ad057612acf612a72565b5b6000612ade84828501612aa5565b91505092915050565b600080fd5b600080fd5b6000601f19601f8301169050919050565b7f4e487b7100000000000000000000000000000000000000000000000000000000600052604160045260246000fd5b612b3a82612af1565b810181811067ffffffffffffffff82111715612b5957612b58612b02565b5b80604052505050565b6000612b6c612a68565b9050612b788282612b31565b919050565b600067ffffffffffffffff821115612b9857612b97612b02565b5b612ba182612af1565b9050602081019050919050565b82818337600083830152505050565b6000612bd0612bcb84612b7d565b612b62565b905082815260208101848484011115612bec57612beb612aec565b5b612bf7848285612bae565b509392505050565b600082601f830112612c1457612c13612ae7565b5b8135612c24848260208601612bbd565b91505092915050565b60008060408385031215612c4457612c43612a72565b5b6000612c5285828601612aa5565b925050602083013567ffffffffffffffff811115612c7357612c72612a77565b5b612c7f85828601612bff565b9150509250929050565b6000819050919050565b612c9c81612c89565b82525050565b6000602082019050612cb76000830184612c93565b92915050565b612cc681612a7c565b82525050565b6000602082019050612ce16000830184612cbd565b92915050565b612cf081612a34565b8114612cfb57600080fd5b50565b600081359050612d0d81612ce7565b92915050565b600060208284031215612d2957612d28612a72565b5b6000612d3784828501612cfe565b91505092915050565b6000604082019050612d556000830185612a3e565b612d626020830184612a3e565b9392505050565b60008060408385031215612d8057612d7f612a72565b5b6000612d8e85828601612cfe565b9250506020612d9f85828601612cfe565b9150509250929050565b60008115159050919050565b612dbe81612da9565b8114612dc957600080fd5b50565b600081359050612ddb81612db5565b92915050565b60008060408385031215612df857612df7612a72565b5b6000612e0685828601612aa5565b9250506020612e1785828601612dcc565b9150509250929050565b6000612e2c826129e6565b9050919050565b612e3c81612e21565b82525050565b6000602082019050612e576000830184612e33565b92915050565b60008060008060808587031215612e7757612e76612a72565b5b6000612e8587828801612aa5565b9450506020612e9687828801612aa5565b9350506040612ea787828801612aa5565b9250506060612eb887828801612cfe565b91505092959194509250565b60008060408385031215612edb57612eda612a72565b5b6000612ee985828601612aa5565b9250506020612efa85828601612cfe565b9150509250929050565b600082825260208201905092915050565b7f46756e6374696f6e206d7573742062652063616c6c6564207468726f7567682060008201527f64656c656761746563616c6c0000000000000000000000000000000000000000602082015250565b6000612f71602c83612f04565b9150612f7c82612f15565b604082019050919050565b60006020820190508181036000830152612fa081612f64565b9050919050565b7f46756e6374696f6e206d7573742062652063616c6c6564207468726f7567682060008201527f6163746976652070726f78790000000000000000000000000000000000000000602082015250565b6000613003602c83612f04565b915061300e82612fa7565b604082019050919050565b6000602082019050818103600083015261303281612ff6565b9050919050565b7f4f776e61626c653a2063616c6c657220213d2070656e64696e674f776e657200600082015250565b600061306f601f83612f04565b915061307a82613039565b602082019050919050565b6000602082019050818103600083015261309e81613062565b9050919050565b7f555550535570677261646561626c653a206d757374206e6f742062652063616c60008201527f6c6564207468726f7567682064656c656761746563616c6c0000000000000000602082015250565b6000613101603883612f04565b915061310c826130a5565b604082019050919050565b60006020820190508181036000830152613130816130f4565b9050919050565b7f4e487b7100000000000000000000000000000000000000000000000000000000600052601160045260246000fd5b600061317182612a34565b915061317c83612a34565b925082820261318a81612a34565b915082820484148315176131a1576131a0613137565b5b5092915050565b7f4e487b7100000000000000000000000000000000000000000000000000000000600052601260045260246000fd5b60006131e282612a34565b91506131ed83612a34565b9250826131fd576131fc6131a8565b5b828204905092915050565b7f4e487b7100000000000000000000000000000000000000000000000000000000600052600160045260246000fd5b60008151905061324681612ce7565b92915050565b60006020828403121561326257613261612a72565b5b600061327084828501613237565b91505092915050565b600060608201905061328e6000830186612a3e565b61329b6020830185612a3e565b6132a86040830184612a3e565b949350505050565b7f496e697469616c697a61626c653a20636f6e747261637420697320616c72656160008201527f647920696e697469616c697a6564000000000000000000000000000000000000602082015250565b600061330c602e83612f04565b9150613317826132b0565b604082019050919050565b6000602082019050818103600083015261333b816132ff565b9050919050565b60007fffffffff0000000000000000000000000000000000000000000000000000000082169050919050565b61337781613342565b82525050565b6000602082019050613392600083018461336e565b92915050565b6000815190506133a781612db5565b92915050565b6000602082840312156133c3576133c2612a72565b5b60006133d184828501613398565b91505092915050565b6000819050919050565b600060ff82169050919050565b600061340c613407613402846133da565b6129ba565b6133e4565b9050919050565b61341c816133f1565b82525050565b60006020820190506134376000830184613413565b92915050565b60006040820190506134526000830185612cbd565b61345f6020830184612a3e565b9392505050565b600061347182612a34565b915061347c83612a34565b925082820390508181111561349457613493613137565b5b92915050565b60006134a582612a34565b91506134b083612a34565b92508282019050808211156134c8576134c7613137565b5b92915050565b7f4f776e61626c653a2063616c6c657220213d206f776e65720000000000000000600082015250565b6000613504601883612f04565b915061350f826134ce565b602082019050919050565b60006020820190508181036000830152613533816134f7565b9050919050565b61354381612c89565b811461354e57600080fd5b50565b6000815190506135608161353a565b92915050565b60006020828403121561357c5761357b612a72565b5b600061358a84828501613551565b91505092915050565b7f45524331393637557067726164653a206e657720696d706c656d656e7461746960008201527f6f6e206973206e6f742055555053000000000000000000000000000000000000602082015250565b60006135ef602e83612f04565b91506135fa82613593565b604082019050919050565b6000602082019050818103600083015261361e816135e2565b9050919050565b7f45524331393637557067726164653a20756e737570706f727465642070726f7860008201527f6961626c65555549440000000000000000000000000000000000000000000000602082015250565b6000613681602983612f04565b915061368c82613625565b604082019050919050565b600060208201905081810360008301526136b081613674565b9050919050565b60006040820190506136cc6000830185612cbd565b6136d96020830184612cbd565b9392505050565b60006060820190506136f56000830186612cbd565b6137026020830185612cbd565b61370f6040830184612a3e565b949350505050565b7f455243313936373a206e657720696d706c656d656e746174696f6e206973206e60008201527f6f74206120636f6e747261637400000000000000000000000000000000000000602082015250565b6000613773602d83612f04565b915061377e82613717565b604082019050919050565b600060208201905081810360008301526137a281613766565b9050919050565b7f5361666545524332303a204552433230206f7065726174696f6e20646964206e60008201527f6f74207375636365656400000000000000000000000000000000000000000000602082015250565b6000613805602a83612f04565b9150613810826137a9565b604082019050919050565b60006020820190508181036000830152613834816137f8565b9050919050565b7f416464726573733a2064656c65676174652063616c6c20746f206e6f6e2d636f60008201527f6e74726163740000000000000000000000000000000000000000000000000000602082015250565b6000613897602683612f04565b91506138a28261383b565b604082019050919050565b600060208201905081810360008301526138c68161388a565b9050919050565b600081519050919050565b600081905092915050565b60005b838110156139015780820151818401526020810190506138e6565b60008484015250505050565b6000613918826138cd565b61392281856138d8565b93506139328185602086016138e3565b80840191505092915050565b600061394a828461390d565b915081905092915050565b7f416464726573733a20696e73756666696369656e742062616c616e636520666f60008201527f722063616c6c0000000000000000000000000000000000000000000000000000602082015250565b60006139b1602683612f04565b91506139bc82613955565b604082019050919050565b600060208201905081810360008301526139e0816139a4565b9050919050565b7f416464726573733a2063616c6c20746f206e6f6e2d636f6e7472616374000000600082015250565b6000613a1d601d83612f04565b9150613a28826139e7565b602082019050919050565b60006020820190508181036000830152613a4c81613a10565b9050919050565b600081519050919050565b6000613a6982613a53565b613a738185612f04565b9350613a838185602086016138e3565b613a8c81612af1565b840191505092915050565b60006020820190508181036000830152613ab18184613a5e565b90509291505056fe416464726573733a206c6f772d6c6576656c2064656c65676174652063616c6c206661696c6564a2646970667358221220b2ebee5ef8c715d8bbcb0a0f2cc9e3fe958917eb5c0df590330bd55576c4b55964736f6c63430008110033",
  "linkReferences": {},
  "deployedLinkReferences": {}
}