{
  "_format": "hh-sol-artifact-1",
  "contractName": "DexPoolFactory",
  "sourceName": "contracts/DexPoolFactory.sol",
  "abi": [
    {
      "inputs": [],
      "stateMutability": "nonpayable",
      "type": "constructor"
    },
    {
      "inputs": [
        {
          "internalType": "address",
          "name": "_address",
          "type": "address"
        }
      ],
      "name": "InvalidAddress",
      "type": "error"
    },
    {
      "inputs": [
        {
          "internalType": "string",
          "name": "reason",
          "type": "string"
        }
      ],
      "name": "InvalidCaller",
      "type": "error"
    },
    {
      "anonymous": false,
      "inputs": [
        {
          "indexed": true,
          "internalType": "address",
          "name": "oldOwner",
          "type": "address"
        },
        {
          "indexed": false,
          "internalType": "address",
          "name": "newOwner",
          "type": "address"
        }
      ],
      "name": "OwnershipTransfered",
      "type": "event"
    },
    {
      "anonymous": false,
      "inputs": [
        {
          "indexed": true,
          "internalType": "address",
          "name": "token0",
          "type": "address"
        },
        {
          "indexed": true,
          "internalType": "address",
          "name": "token1",
          "type": "address"
        },
        {
          "indexed": true,
          "internalType": "uint256",
          "name": "fee",
          "type": "uint256"
        },
        {
          "indexed": false,
          "internalType": "address",
          "name": "pool",
          "type": "address"
        }
      ],
      "name": "PoolCreated",
      "type": "event"
    },
    {
      "inputs": [],
      "name": "claimOwnership",
      "outputs": [],
      "stateMutability": "nonpayable",
      "type": "function"
    },
    {
      "inputs": [
        {
          "internalType": "address",
          "name": "initialImplementation",
          "type": "address"
        },
        {
          "internalType": "address",
          "name": "tokenA",
          "type": "address"
        },
        {
          "internalType": "address",
          "name": "tokenB",
          "type": "address"
        },
        {
          "internalType": "uint256",
          "name": "fee",
          "type": "uint256"
        }
      ],
      "name": "createPool",
      "outputs": [
        {
          "internalType": "address",
          "name": "pool",
          "type": "address"
        }
      ],
      "stateMutability": "nonpayable",
      "type": "function"
    },
    {
      "inputs": [
        {
          "internalType": "address",
          "name": "",
          "type": "address"
        },
        {
          "internalType": "address",
          "name": "",
          "type": "address"
        },
        {
          "internalType": "uint256",
          "name": "",
          "type": "uint256"
        }
      ],
      "name": "getPool",
      "outputs": [
        {
          "internalType": "address",
          "name": "",
          "type": "address"
        }
      ],
      "stateMutability": "view",
      "type": "function"
    },
    {
      "inputs": [],
      "name": "owner",
      "outputs": [
        {
          "internalType": "address",
          "name": "",
          "type": "address"
        }
      ],
      "stateMutability": "view",
      "type": "function"
    },
    {
      "inputs": [],
      "name": "pendingOwner",
      "outputs": [
        {
          "internalType": "address",
          "name": "",
          "type": "address"
        }
      ],
      "stateMutability": "view",
      "type": "function"
    },
    {
      "inputs": [
        {
          "internalType": "bytes4",
          "name": "interfaceId",
          "type": "bytes4"
        }
      ],
      "name": "supportsInterface",
      "outputs": [
        {
          "internalType": "bool",
          "name": "",
          "type": "bool"
        }
      ],
      "stateMutability": "view",
      "type": "function"
    },
    {
      "inputs": [
        {
          "internalType": "address",
          "name": "newOwner",
          "type": "address"
        },
        {
          "internalType": "bool",
          "name": "direct",
          "type": "bool"
        }
      ],
      "name": "transferOwnership",
      "outputs": [],
      "stateMutability": "nonpayable",
      "type": "function"
    }
  ],
  "bytecode": "0x608060405234801561001057600080fd5b50336000806101000a81548173ffffffffffffffffffffffffffffffffffffffff021916908373ffffffffffffffffffffffffffffffffffffffff160217905550611ab7806100606000396000f3fe60806040523480156200001157600080fd5b5060043610620000885760003560e01c806393c907b4116200006357806393c907b414620000f1578063acf6cc1a1462000127578063b242e534146200015d578063e30c3978146200017d5762000088565b806301ffc9a7146200008d5780634e71e0c814620000c35780638da5cb5b14620000cf575b600080fd5b620000ab6004803603810190620000a59190620009da565b6200019f565b604051620000ba919062000a29565b60405180910390f35b620000cd6200021c565b005b620000d9620003c5565b604051620000e8919062000a8b565b60405180910390f35b6200010f600480360381019062000109919062000b14565b620003e9565b6040516200011e919062000a8b565b60405180910390f35b6200014560048036038101906200013f919062000b86565b620006d2565b60405162000154919062000a8b565b60405180910390f35b6200017b600480360381019062000175919062000c13565b62000721565b005b62000187620008da565b60405162000196919062000a8b565b60405180910390f35b60007fada53c71000000000000000000000000000000000000000000000000000000007bffffffffffffffffffffffffffffffffffffffffffffffffffffffff1916827bffffffffffffffffffffffffffffffffffffffffffffffffffffffff19161480620002155750620002148262000900565b5b9050919050565b600160009054906101000a900473ffffffffffffffffffffffffffffffffffffffff1673ffffffffffffffffffffffffffffffffffffffff163373ffffffffffffffffffffffffffffffffffffffff1614620002af576040517f7c0232c3000000000000000000000000000000000000000000000000000000008152600401620002a69062000cbb565b60405180910390fd5b60008054906101000a900473ffffffffffffffffffffffffffffffffffffffff1673ffffffffffffffffffffffffffffffffffffffff167f0d18b5fd22306e373229b9439188228edca81207d1667f604daf6cef8aa3ee67600160009054906101000a900473ffffffffffffffffffffffffffffffffffffffff1660405162000339919062000a8b565b60405180910390a2336000806101000a81548173ffffffffffffffffffffffffffffffffffffffff021916908373ffffffffffffffffffffffffffffffffffffffff1602179055506000600160006101000a81548173ffffffffffffffffffffffffffffffffffffffff021916908373ffffffffffffffffffffffffffffffffffffffff160217905550565b60008054906101000a900473ffffffffffffffffffffffffffffffffffffffff1681565b60008063cf756fdf60e01b60008054906101000a900473ffffffffffffffffffffffffffffffffffffffff168686866040516024016200042d949392919062000cee565b604051602081830303815290604052907bffffffffffffffffffffffffffffffffffffffffffffffffffffffff19166020820180517bffffffffffffffffffffffffffffffffffffffffffffffffffffffff8381831617835250505050905085816040516200049c906200096a565b620004a992919062000dd5565b604051809103906000f080158015620004c6573d6000803e3d6000fd5b50915081600260008773ffffffffffffffffffffffffffffffffffffffff1673ffffffffffffffffffffffffffffffffffffffff16815260200190815260200160002060008673ffffffffffffffffffffffffffffffffffffffff1673ffffffffffffffffffffffffffffffffffffffff168152602001908152602001600020600085815260200190815260200160002060006101000a81548173ffffffffffffffffffffffffffffffffffffffff021916908373ffffffffffffffffffffffffffffffffffffffff16021790555081600260008673ffffffffffffffffffffffffffffffffffffffff1673ffffffffffffffffffffffffffffffffffffffff16815260200190815260200160002060008773ffffffffffffffffffffffffffffffffffffffff1673ffffffffffffffffffffffffffffffffffffffff168152602001908152602001600020600085815260200190815260200160002060006101000a81548173ffffffffffffffffffffffffffffffffffffffff021916908373ffffffffffffffffffffffffffffffffffffffff160217905550828473ffffffffffffffffffffffffffffffffffffffff168673ffffffffffffffffffffffffffffffffffffffff167f0537d3e5d88810bbfb16874b28bc0f95856d7bb24c8f29511fe463c5b1d27c6b85604051620006c1919062000a8b565b60405180910390a450949350505050565b6002602052826000526040600020602052816000526040600020602052806000526040600020600092509250509054906101000a900473ffffffffffffffffffffffffffffffffffffffff1681565b80156200089457600073ffffffffffffffffffffffffffffffffffffffff168273ffffffffffffffffffffffffffffffffffffffff16036200079c57816040517f8e4c8aa600000000000000000000000000000000000000000000000000000000815260040162000793919062000a8b565b60405180910390fd5b60008054906101000a900473ffffffffffffffffffffffffffffffffffffffff1673ffffffffffffffffffffffffffffffffffffffff167f0d18b5fd22306e373229b9439188228edca81207d1667f604daf6cef8aa3ee678360405162000804919062000a8b565b60405180910390a2816000806101000a81548173ffffffffffffffffffffffffffffffffffffffff021916908373ffffffffffffffffffffffffffffffffffffffff1602179055506000600160006101000a81548173ffffffffffffffffffffffffffffffffffffffff021916908373ffffffffffffffffffffffffffffffffffffffff160217905550620008d6565b81600160006101000a81548173ffffffffffffffffffffffffffffffffffffffff021916908373ffffffffffffffffffffffffffffffffffffffff1602179055505b5050565b600160009054906101000a900473ffffffffffffffffffffffffffffffffffffffff1681565b60007f01ffc9a7000000000000000000000000000000000000000000000000000000007bffffffffffffffffffffffffffffffffffffffffffffffffffffffff1916827bffffffffffffffffffffffffffffffffffffffffffffffffffffffff1916149050919050565b610c788062000e0a83390190565b600080fd5b60007fffffffff0000000000000000000000000000000000000000000000000000000082169050919050565b620009b4816200097d565b8114620009c057600080fd5b50565b600081359050620009d481620009a9565b92915050565b600060208284031215620009f357620009f262000978565b5b600062000a0384828501620009c3565b91505092915050565b60008115159050919050565b62000a238162000a0c565b82525050565b600060208201905062000a40600083018462000a18565b92915050565b600073ffffffffffffffffffffffffffffffffffffffff82169050919050565b600062000a738262000a46565b9050919050565b62000a858162000a66565b82525050565b600060208201905062000aa2600083018462000a7a565b92915050565b62000ab38162000a66565b811462000abf57600080fd5b50565b60008135905062000ad38162000aa8565b92915050565b6000819050919050565b62000aee8162000ad9565b811462000afa57600080fd5b50565b60008135905062000b0e8162000ae3565b92915050565b6000806000806080858703121562000b315762000b3062000978565b5b600062000b418782880162000ac2565b945050602062000b548782880162000ac2565b935050604062000b678782880162000ac2565b925050606062000b7a8782880162000afd565b91505092959194509250565b60008060006060848603121562000ba25762000ba162000978565b5b600062000bb28682870162000ac2565b935050602062000bc58682870162000ac2565b925050604062000bd88682870162000afd565b9150509250925092565b62000bed8162000a0c565b811462000bf957600080fd5b50565b60008135905062000c0d8162000be2565b92915050565b6000806040838503121562000c2d5762000c2c62000978565b5b600062000c3d8582860162000ac2565b925050602062000c508582860162000bfc565b9150509250929050565b600082825260208201905092915050565b7f4f776e61626c653a2063616c6c657220213d2070656e64696e674f776e657200600082015250565b600062000ca3601f8362000c5a565b915062000cb08262000c6b565b602082019050919050565b6000602082019050818103600083015262000cd68162000c94565b9050919050565b62000ce88162000ad9565b82525050565b600060808201905062000d05600083018762000a7a565b62000d14602083018662000a7a565b62000d23604083018562000a7a565b62000d32606083018462000cdd565b95945050505050565b600081519050919050565b600082825260208201905092915050565b60005b8381101562000d7757808201518184015260208101905062000d5a565b60008484015250505050565b6000601f19601f8301169050919050565b600062000da18262000d3b565b62000dad818562000d46565b935062000dbf81856020860162000d57565b62000dca8162000d83565b840191505092915050565b600060408201905062000dec600083018562000a7a565b818103602083015262000e00818462000d94565b9050939250505056fe60806040523480156200001157600080fd5b5060405162000c7838038062000c78833981810160405281019062000037919062000572565b81816200004d828260006200005760201b60201c565b50505050620007ef565b62000068836200009a60201b60201c565b600082511180620000765750805b156200009557620000938383620000f160201b620000371760201c565b505b505050565b620000ab816200012760201b60201c565b8073ffffffffffffffffffffffffffffffffffffffff167fbc7cd75a20ee27fd9adebab32041f755214dbc6bffa90cc0225b39da2e5c2d3b60405160405180910390a250565b60606200011f838360405180606001604052806027815260200162000c5160279139620001fd60201b60201c565b905092915050565b6200013d81620002e160201b620000641760201c565b6200017f576040517f08c379a000000000000000000000000000000000000000000000000000000000815260040162000176906200065f565b60405180910390fd5b80620001b97f360894a13ba1a3210667c828492db98dca3e2076cc3735a920a3ca505d382bbc60001b6200030460201b620000871760201c565b60000160006101000a81548173ffffffffffffffffffffffffffffffffffffffff021916908373ffffffffffffffffffffffffffffffffffffffff16021790555050565b60606200021084620002e160201b60201c565b62000252576040517f08c379a00000000000000000000000000000000000000000000000000000000081526004016200024990620006f7565b60405180910390fd5b6000808573ffffffffffffffffffffffffffffffffffffffff16856040516200027c919062000766565b600060405180830381855af49150503d8060008114620002b9576040519150601f19603f3d011682016040523d82523d6000602084013e620002be565b606091505b5091509150620002d68282866200030e60201b60201c565b925050509392505050565b6000808273ffffffffffffffffffffffffffffffffffffffff163b119050919050565b6000819050919050565b60608315620003205782905062000373565b600083511115620003345782518084602001fd5b816040517f08c379a00000000000000000000000000000000000000000000000000000000081526004016200036a9190620007cb565b60405180910390fd5b9392505050565b6000604051905090565b600080fd5b600080fd5b600073ffffffffffffffffffffffffffffffffffffffff82169050919050565b6000620003bb826200038e565b9050919050565b620003cd81620003ae565b8114620003d957600080fd5b50565b600081519050620003ed81620003c2565b92915050565b600080fd5b600080fd5b6000601f19601f8301169050919050565b7f4e487b7100000000000000000000000000000000000000000000000000000000600052604160045260246000fd5b6200044882620003fd565b810181811067ffffffffffffffff821117156200046a57620004696200040e565b5b80604052505050565b60006200047f6200037a565b90506200048d82826200043d565b919050565b600067ffffffffffffffff821115620004b057620004af6200040e565b5b620004bb82620003fd565b9050602081019050919050565b60005b83811015620004e8578082015181840152602081019050620004cb565b60008484015250505050565b60006200050b620005058462000492565b62000473565b9050828152602081018484840111156200052a5762000529620003f8565b5b62000537848285620004c8565b509392505050565b600082601f830112620005575762000556620003f3565b5b815162000569848260208601620004f4565b91505092915050565b600080604083850312156200058c576200058b62000384565b5b60006200059c85828601620003dc565b925050602083015167ffffffffffffffff811115620005c057620005bf62000389565b5b620005ce858286016200053f565b9150509250929050565b600082825260208201905092915050565b7f455243313936373a206e657720696d706c656d656e746174696f6e206973206e60008201527f6f74206120636f6e747261637400000000000000000000000000000000000000602082015250565b600062000647602d83620005d8565b91506200065482620005e9565b604082019050919050565b600060208201905081810360008301526200067a8162000638565b9050919050565b7f416464726573733a2064656c65676174652063616c6c20746f206e6f6e2d636f60008201527f6e74726163740000000000000000000000000000000000000000000000000000602082015250565b6000620006df602683620005d8565b9150620006ec8262000681565b604082019050919050565b600060208201905081810360008301526200071281620006d0565b9050919050565b600081519050919050565b600081905092915050565b60006200073c8262000719565b62000748818562000724565b93506200075a818560208601620004c8565b80840191505092915050565b60006200077482846200072f565b915081905092915050565b600081519050919050565b600062000797826200077f565b620007a38185620005d8565b9350620007b5818560208601620004c8565b620007c081620003fd565b840191505092915050565b60006020820190508181036000830152620007e781846200078a565b905092915050565b61045280620007ff6000396000f3fe6080604052366100135761001161001d565b005b61001b61001d565b005b610025610091565b610035610030610093565b6100a2565b565b606061005c83836040518060600160405280602781526020016103f6602791396100c8565b905092915050565b6000808273ffffffffffffffffffffffffffffffffffffffff163b119050919050565b6000819050919050565b565b600061009d610195565b905090565b3660008037600080366000845af43d6000803e80600081146100c3573d6000f35b3d6000fd5b60606100d384610064565b610112576040517f08c379a0000000000000000000000000000000000000000000000000000000008152600401610109906102d6565b60405180910390fd5b6000808573ffffffffffffffffffffffffffffffffffffffff168560405161013a9190610367565b600060405180830381855af49150503d8060008114610175576040519150601f19603f3d011682016040523d82523d6000602084013e61017a565b606091505b509150915061018a8282866101ec565b925050509392505050565b60006101c37f360894a13ba1a3210667c828492db98dca3e2076cc3735a920a3ca505d382bbc60001b610087565b60000160009054906101000a900473ffffffffffffffffffffffffffffffffffffffff16905090565b606083156101fc5782905061024c565b60008351111561020f5782518084602001fd5b816040517f08c379a000000000000000000000000000000000000000000000000000000000815260040161024391906103d3565b60405180910390fd5b9392505050565b600082825260208201905092915050565b7f416464726573733a2064656c65676174652063616c6c20746f206e6f6e2d636f60008201527f6e74726163740000000000000000000000000000000000000000000000000000602082015250565b60006102c0602683610253565b91506102cb82610264565b604082019050919050565b600060208201905081810360008301526102ef816102b3565b9050919050565b600081519050919050565b600081905092915050565b60005b8381101561032a57808201518184015260208101905061030f565b60008484015250505050565b6000610341826102f6565b61034b8185610301565b935061035b81856020860161030c565b80840191505092915050565b60006103738284610336565b915081905092915050565b600081519050919050565b6000601f19601f8301169050919050565b60006103a58261037e565b6103af8185610253565b93506103bf81856020860161030c565b6103c881610389565b840191505092915050565b600060208201905081810360008301526103ed818461039a565b90509291505056fe416464726573733a206c6f772d6c6576656c2064656c65676174652063616c6c206661696c6564a26469706673582212207f1ef99ae68369ca83b525070b90388b2c455cccd27b2c06a63b14983978969b64736f6c63430008110033416464726573733a206c6f772d6c6576656c2064656c65676174652063616c6c206661696c6564a2646970667358221220091fca6e51f120e0696324f7c5eb79289ce9bb39cdb6c8b906fb4434a0b347a764736f6c63430008110033",
  "linkReferences": {},
  "deployedLinkReferences": {}
}